{
  "contractName": "ElectionToken",
  "abi": [
    {
      "inputs": [],
      "payable": false,
      "stateMutability": "nonpayable",
      "type": "constructor"
    },
    {
      "anonymous": false,
      "inputs": [
        {
          "indexed": true,
          "internalType": "address",
          "name": "owner",
          "type": "address"
        },
        {
          "indexed": true,
          "internalType": "address",
          "name": "spender",
          "type": "address"
        },
        {
          "indexed": false,
          "internalType": "uint256",
          "name": "value",
          "type": "uint256"
        }
      ],
      "name": "Approval",
      "type": "event"
    },
    {
      "anonymous": false,
      "inputs": [
        {
          "indexed": true,
          "internalType": "address",
          "name": "previousOwner",
          "type": "address"
        },
        {
          "indexed": true,
          "internalType": "address",
          "name": "newOwner",
          "type": "address"
        }
      ],
      "name": "OwnershipTransferred",
      "type": "event"
    },
    {
      "anonymous": false,
      "inputs": [
        {
          "indexed": true,
          "internalType": "address",
          "name": "from",
          "type": "address"
        },
        {
          "indexed": true,
          "internalType": "address",
          "name": "to",
          "type": "address"
        },
        {
          "indexed": false,
          "internalType": "uint256",
          "name": "value",
          "type": "uint256"
        }
      ],
      "name": "Transfer",
      "type": "event"
    },
    {
      "constant": true,
      "inputs": [
        {
          "internalType": "address",
          "name": "owner",
          "type": "address"
        },
        {
          "internalType": "address",
          "name": "spender",
          "type": "address"
        }
      ],
      "name": "allowance",
      "outputs": [
        {
          "internalType": "uint256",
          "name": "",
          "type": "uint256"
        }
      ],
      "payable": false,
      "stateMutability": "view",
      "type": "function"
    },
    {
      "constant": false,
      "inputs": [
        {
          "internalType": "address",
          "name": "spender",
          "type": "address"
        },
        {
          "internalType": "uint256",
          "name": "amount",
          "type": "uint256"
        }
      ],
      "name": "approve",
      "outputs": [
        {
          "internalType": "bool",
          "name": "",
          "type": "bool"
        }
      ],
      "payable": false,
      "stateMutability": "nonpayable",
      "type": "function"
    },
    {
      "constant": true,
      "inputs": [
        {
          "internalType": "address",
          "name": "account",
          "type": "address"
        }
      ],
      "name": "balanceOf",
      "outputs": [
        {
          "internalType": "uint256",
          "name": "",
          "type": "uint256"
        }
      ],
      "payable": false,
      "stateMutability": "view",
      "type": "function"
    },
    {
      "constant": true,
      "inputs": [
        {
          "internalType": "uint256",
          "name": "",
          "type": "uint256"
        }
      ],
      "name": "candidateAddresses",
      "outputs": [
        {
          "internalType": "address",
          "name": "",
          "type": "address"
        }
      ],
      "payable": false,
      "stateMutability": "view",
      "type": "function"
    },
    {
      "constant": true,
      "inputs": [],
      "name": "decimals",
      "outputs": [
        {
          "internalType": "uint8",
          "name": "",
          "type": "uint8"
        }
      ],
      "payable": false,
      "stateMutability": "view",
      "type": "function"
    },
    {
      "constant": false,
      "inputs": [
        {
          "internalType": "address",
          "name": "spender",
          "type": "address"
        },
        {
          "internalType": "uint256",
          "name": "subtractedValue",
          "type": "uint256"
        }
      ],
      "name": "decreaseAllowance",
      "outputs": [
        {
          "internalType": "bool",
          "name": "",
          "type": "bool"
        }
      ],
      "payable": false,
      "stateMutability": "nonpayable",
      "type": "function"
    },
    {
      "constant": false,
      "inputs": [
        {
          "internalType": "address",
          "name": "spender",
          "type": "address"
        },
        {
          "internalType": "uint256",
          "name": "addedValue",
          "type": "uint256"
        }
      ],
      "name": "increaseAllowance",
      "outputs": [
        {
          "internalType": "bool",
          "name": "",
          "type": "bool"
        }
      ],
      "payable": false,
      "stateMutability": "nonpayable",
      "type": "function"
    },
    {
      "constant": true,
      "inputs": [],
      "name": "isOwner",
      "outputs": [
        {
          "internalType": "bool",
          "name": "",
          "type": "bool"
        }
      ],
      "payable": false,
      "stateMutability": "view",
      "type": "function"
    },
    {
      "constant": true,
      "inputs": [],
      "name": "name",
      "outputs": [
        {
          "internalType": "string",
          "name": "",
          "type": "string"
        }
      ],
      "payable": false,
      "stateMutability": "view",
      "type": "function"
    },
    {
      "constant": true,
      "inputs": [],
      "name": "owner",
      "outputs": [
        {
          "internalType": "address",
          "name": "",
          "type": "address"
        }
      ],
      "payable": false,
      "stateMutability": "view",
      "type": "function"
    },
    {
      "constant": false,
      "inputs": [],
      "name": "renounceOwnership",
      "outputs": [],
      "payable": false,
      "stateMutability": "nonpayable",
      "type": "function"
    },
    {
      "constant": true,
      "inputs": [],
      "name": "symbol",
      "outputs": [
        {
          "internalType": "string",
          "name": "",
          "type": "string"
        }
      ],
      "payable": false,
      "stateMutability": "view",
      "type": "function"
    },
    {
      "constant": true,
      "inputs": [],
      "name": "totalSupply",
      "outputs": [
        {
          "internalType": "uint256",
          "name": "",
          "type": "uint256"
        }
      ],
      "payable": false,
      "stateMutability": "view",
      "type": "function"
    },
    {
      "constant": false,
      "inputs": [
        {
          "internalType": "address",
          "name": "recipient",
          "type": "address"
        },
        {
          "internalType": "uint256",
          "name": "amount",
          "type": "uint256"
        }
      ],
      "name": "transfer",
      "outputs": [
        {
          "internalType": "bool",
          "name": "",
          "type": "bool"
        }
      ],
      "payable": false,
      "stateMutability": "nonpayable",
      "type": "function"
    },
    {
      "constant": false,
      "inputs": [
        {
          "internalType": "address",
          "name": "sender",
          "type": "address"
        },
        {
          "internalType": "address",
          "name": "recipient",
          "type": "address"
        },
        {
          "internalType": "uint256",
          "name": "amount",
          "type": "uint256"
        }
      ],
      "name": "transferFrom",
      "outputs": [
        {
          "internalType": "bool",
          "name": "",
          "type": "bool"
        }
      ],
      "payable": false,
      "stateMutability": "nonpayable",
      "type": "function"
    },
    {
      "constant": false,
      "inputs": [
        {
          "internalType": "address",
          "name": "newOwner",
          "type": "address"
        }
      ],
      "name": "transferOwnership",
      "outputs": [],
      "payable": false,
      "stateMutability": "nonpayable",
      "type": "function"
    },
    {
      "constant": true,
      "inputs": [
        {
          "internalType": "uint256",
          "name": "",
          "type": "uint256"
        }
      ],
      "name": "voterAddresses",
      "outputs": [
        {
          "internalType": "address",
          "name": "",
          "type": "address"
        }
      ],
      "payable": false,
      "stateMutability": "view",
      "type": "function"
    },
    {
      "constant": false,
      "inputs": [
        {
          "internalType": "uint256",
          "name": "_initialSupply",
          "type": "uint256"
        },
        {
          "internalType": "address[]",
          "name": "_voterAddresses",
          "type": "address[]"
        },
        {
          "internalType": "address[]",
          "name": "_candidateAddresses",
          "type": "address[]"
        },
        {
          "internalType": "uint256",
          "name": "_start",
          "type": "uint256"
        },
        {
          "internalType": "uint256",
          "name": "_end",
          "type": "uint256"
        }
      ],
      "name": "initContract",
      "outputs": [],
      "payable": false,
      "stateMutability": "nonpayable",
      "type": "function"
    },
    {
      "constant": false,
      "inputs": [
        {
          "internalType": "address[]",
          "name": "addresses",
          "type": "address[]"
        }
      ],
      "name": "addVotersList",
      "outputs": [],
      "payable": false,
      "stateMutability": "nonpayable",
      "type": "function"
    },
    {
      "constant": false,
      "inputs": [
        {
          "internalType": "address[]",
          "name": "addresses",
          "type": "address[]"
        }
      ],
      "name": "addCandidatesList",
      "outputs": [],
      "payable": false,
      "stateMutability": "nonpayable",
      "type": "function"
    },
    {
      "constant": false,
      "inputs": [],
      "name": "distributeTokens",
      "outputs": [],
      "payable": false,
      "stateMutability": "nonpayable",
      "type": "function"
    },
    {
      "constant": false,
      "inputs": [
        {
          "internalType": "address",
          "name": "candidateAddress",
          "type": "address"
        }
      ],
      "name": "vote",
      "outputs": [],
      "payable": false,
      "stateMutability": "nonpayable",
      "type": "function"
    },
    {
      "constant": true,
      "inputs": [],
      "name": "getResults",
      "outputs": [
        {
          "internalType": "address[]",
          "name": "",
          "type": "address[]"
        },
        {
          "internalType": "uint256[]",
          "name": "",
          "type": "uint256[]"
        }
      ],
      "payable": false,
      "stateMutability": "view",
      "type": "function"
    },
    {
      "constant": true,
      "inputs": [],
      "name": "getStatistics",
      "outputs": [
        {
          "internalType": "uint256",
          "name": "",
          "type": "uint256"
        },
        {
          "internalType": "uint256",
          "name": "",
          "type": "uint256"
        }
      ],
      "payable": false,
      "stateMutability": "view",
      "type": "function"
    },
    {
      "constant": false,
      "inputs": [
        {
          "internalType": "uint256",
          "name": "_start",
          "type": "uint256"
        }
      ],
      "name": "setElectionStartTime",
      "outputs": [],
      "payable": false,
      "stateMutability": "nonpayable",
      "type": "function"
    },
    {
      "constant": false,
      "inputs": [
        {
          "internalType": "uint256",
          "name": "_expiration",
          "type": "uint256"
        }
      ],
      "name": "setElectionExpirationTime",
      "outputs": [],
      "payable": false,
      "stateMutability": "nonpayable",
      "type": "function"
    },
    {
      "constant": true,
      "inputs": [],
      "name": "displayTime",
      "outputs": [
        {
          "internalType": "uint256",
          "name": "",
          "type": "uint256"
        },
        {
          "internalType": "uint256",
          "name": "",
          "type": "uint256"
        },
        {
          "internalType": "uint256",
          "name": "",
          "type": "uint256"
        }
      ],
      "payable": false,
      "stateMutability": "view",
      "type": "function"
    },
    {
      "constant": true,
      "inputs": [
        {
          "internalType": "address",
          "name": "_address",
          "type": "address"
        }
      ],
      "name": "balanceOFFFF",
      "outputs": [
        {
          "internalType": "uint256",
          "name": "",
          "type": "uint256"
        }
      ],
      "payable": false,
      "stateMutability": "view",
      "type": "function"
    },
    {
      "constant": true,
      "inputs": [
        {
          "internalType": "address",
          "name": "_address",
          "type": "address"
        }
      ],
      "name": "balanceOFFF",
      "outputs": [
        {
          "internalType": "uint256",
          "name": "",
          "type": "uint256"
        }
      ],
      "payable": false,
      "stateMutability": "view",
      "type": "function"
    }
  ],
  "bytecode": "0x60806040523480156200001157600080fd5b506040518060400160405280600b81526020017f566f74696e67546f6b656e0000000000000000000000000000000000000000008152506040518060400160405280600381526020017f5654430000000000000000000000000000000000000000000000000000000000815250600082600390805190602001906200009892919062000206565b508160049080519060200190620000b192919062000206565b5080600560006101000a81548160ff021916908360ff16021790555050505033600560016101000a81548173ffffffffffffffffffffffffffffffffffffffff021916908373ffffffffffffffffffffffffffffffffffffffff160217905550600560019054906101000a900473ffffffffffffffffffffffffffffffffffffffff1673ffffffffffffffffffffffffffffffffffffffff16600073ffffffffffffffffffffffffffffffffffffffff167f8be0079c531659141344cd1fd0a4f28419497f9722a3daafe3b4186f6b6457e060405160405180910390a36200019e620001ae60201b60201c565b620001a857600080fd5b620002b5565b6000600560019054906101000a900473ffffffffffffffffffffffffffffffffffffffff1673ffffffffffffffffffffffffffffffffffffffff163373ffffffffffffffffffffffffffffffffffffffff1614905090565b828054600181600116156101000203166002900490600052602060002090601f016020900481019282601f106200024957805160ff19168380011785556200027a565b828001600101855582156200027a579182015b82811115620002795782518255916020019190600101906200025c565b5b5090506200028991906200028d565b5090565b620002b291905b80821115620002ae57600081600090555060010162000294565b5090565b90565b61296980620002c56000396000f3fe608060405234801561001057600080fd5b50600436106101cf5760003560e01c80637df9038111610104578063cc2edd40116100a2578063dd62ed3e11610071578063dd62ed3e14610bb4578063f2fde38b14610c2c578063fddfb93e14610c70578063ff31fd0c14610c9e576101cf565b8063cc2edd40146109c8578063d55d73c514610a80578063d8c8abe814610aee578063dd0e237314610b46576101cf565b806395d89b41116100de57806395d89b411461086f5780639ab1b484146108f2578063a457c2d7146108fc578063a9059cbb14610962576101cf565b80637df90381146107ab5780638da5cb5b146108035780638f32d59b1461084d576101cf565b806339509351116101715780636dd7d8ea1161014b5780636dd7d8ea1461059b5780637004d777146105df57806370a0823114610749578063715018a6146107a1576101cf565b806339509351146104625780634717f97c146104c85780635fbbe65a1461056f576101cf565b806323b872dd116101ad57806323b872dd146102db5780632742ab2914610361578063313ce56714610419578063372d6b271461043d576101cf565b806306fdde03146101d4578063095ea7b31461025757806318160ddd146102bd575b600080fd5b6101dc610ccc565b6040518080602001828103825283818151815260200191508051906020019080838360005b8381101561021c578082015181840152602081019050610201565b50505050905090810190601f1680156102495780820380516001836020036101000a031916815260200191505b509250505060405180910390f35b6102a36004803603604081101561026d57600080fd5b81019080803573ffffffffffffffffffffffffffffffffffffffff16906020019092919080359060200190929190505050610d6e565b604051808215151515815260200191505060405180910390f35b6102c5610d85565b6040518082815260200191505060405180910390f35b610347600480360360608110156102f157600080fd5b81019080803573ffffffffffffffffffffffffffffffffffffffff169060200190929190803573ffffffffffffffffffffffffffffffffffffffff16906020019092919080359060200190929190505050610d8f565b604051808215151515815260200191505060405180910390f35b6104176004803603602081101561037757600080fd5b810190808035906020019064010000000081111561039457600080fd5b8201836020820111156103a657600080fd5b803590602001918460208302840111640100000000831117156103c857600080fd5b919080806020026020016040519081016040528093929190818152602001838360200280828437600081840152601f19601f820116905080830192505050505050509192919290505050610e5a565b005b610421610f0c565b604051808260ff1660ff16815260200191505060405180910390f35b610445610f23565b604051808381526020018281526020019250505060405180910390f35b6104ae6004803603604081101561047857600080fd5b81019080803573ffffffffffffffffffffffffffffffffffffffff16906020019092919080359060200190929190505050610ff4565b604051808215151515815260200191505060405180910390f35b6104d0611099565b604051808060200180602001838103835285818151815260200191508051906020019060200280838360005b838110156105175780820151818401526020810190506104fc565b50505050905001838103825284818151815260200191508051906020019060200280838360005b8381101561055957808201518184015260208101905061053e565b5050505090500194505050505060405180910390f35b6105776111e2565b60405180848152602001838152602001828152602001935050505060405180910390f35b6105dd600480360360208110156105b157600080fd5b81019080803573ffffffffffffffffffffffffffffffffffffffff1690602001909291905050506111fe565b005b610747600480360360a08110156105f557600080fd5b81019080803590602001909291908035906020019064010000000081111561061c57600080fd5b82018360208201111561062e57600080fd5b8035906020019184602083028401116401000000008311171561065057600080fd5b919080806020026020016040519081016040528093929190818152602001838360200280828437600081840152601f19601f820116905080830192505050505050509192919290803590602001906401000000008111156106b057600080fd5b8201836020820111156106c257600080fd5b803590602001918460208302840111640100000000831117156106e457600080fd5b919080806020026020016040519081016040528093929190818152602001838360200280828437600081840152601f19601f820116905080830192505050505050509192919290803590602001909291908035906020019092919050505061162c565b005b61078b6004803603602081101561075f57600080fd5b81019080803573ffffffffffffffffffffffffffffffffffffffff16906020019092919050505061167a565b6040518082815260200191505060405180910390f35b6107a96116c2565b005b6107ed600480360360208110156107c157600080fd5b81019080803573ffffffffffffffffffffffffffffffffffffffff169060200190929190505050611794565b6040518082815260200191505060405180910390f35b61080b6117a6565b604051808273ffffffffffffffffffffffffffffffffffffffff1673ffffffffffffffffffffffffffffffffffffffff16815260200191505060405180910390f35b6108556117d0565b604051808215151515815260200191505060405180910390f35b610877611828565b6040518080602001828103825283818151815260200191508051906020019080838360005b838110156108b757808201518184015260208101905061089c565b50505050905090810190601f1680156108e45780820380516001836020036101000a031916815260200191505b509250505060405180910390f35b6108fa6118ca565b005b6109486004803603604081101561091257600080fd5b81019080803573ffffffffffffffffffffffffffffffffffffffff169060200190929190803590602001909291905050506119be565b604051808215151515815260200191505060405180910390f35b6109ae6004803603604081101561097857600080fd5b81019080803573ffffffffffffffffffffffffffffffffffffffff16906020019092919080359060200190929190505050611a7d565b604051808215151515815260200191505060405180910390f35b610a7e600480360360208110156109de57600080fd5b81019080803590602001906401000000008111156109fb57600080fd5b820183602082011115610a0d57600080fd5b80359060200191846020830284011164010000000083111715610a2f57600080fd5b919080806020026020016040519081016040528093929190818152602001838360200280828437600081840152601f19601f820116905080830192505050505050509192919290505050611a94565b005b610aac60048036036020811015610a9657600080fd5b8101908080359060200190929190505050611b46565b604051808273ffffffffffffffffffffffffffffffffffffffff1673ffffffffffffffffffffffffffffffffffffffff16815260200191505060405180910390f35b610b3060048036036020811015610b0457600080fd5b81019080803573ffffffffffffffffffffffffffffffffffffffff169060200190929190505050611b82565b6040518082815260200191505060405180910390f35b610b7260048036036020811015610b5c57600080fd5b8101908080359060200190929190505050611b94565b604051808273ffffffffffffffffffffffffffffffffffffffff1673ffffffffffffffffffffffffffffffffffffffff16815260200191505060405180910390f35b610c1660048036036040811015610bca57600080fd5b81019080803573ffffffffffffffffffffffffffffffffffffffff169060200190929190803573ffffffffffffffffffffffffffffffffffffffff169060200190929190505050611bd0565b6040518082815260200191505060405180910390f35b610c6e60048036036020811015610c4257600080fd5b81019080803573ffffffffffffffffffffffffffffffffffffffff169060200190929190505050611c57565b005b610c9c60048036036020811015610c8657600080fd5b8101908080359060200190929190505050611c74565b005b610cca60048036036020811015610cb457600080fd5b8101908080359060200190929190505050611c8f565b005b606060038054600181600116156101000203166002900480601f016020809104026020016040519081016040528092919081815260200182805460018160011615610100020316600290048015610d645780601f10610d3957610100808354040283529160200191610d64565b820191906000526020600020905b815481529060010190602001808311610d4757829003601f168201915b5050505050905090565b6000610d7b338484611caa565b6001905092915050565b6000600254905090565b6000610d9c848484611ea1565b610e4f8433610e4a8560405180606001604052806028815260200161289f60289139600160008b73ffffffffffffffffffffffffffffffffffffffff1673ffffffffffffffffffffffffffffffffffffffff16815260200190815260200160002060003373ffffffffffffffffffffffffffffffffffffffff1673ffffffffffffffffffffffffffffffffffffffff168152602001908152602001600020546121579092919063ffffffff16565b611caa565b600190509392505050565b610e626117d0565b610e6b57600080fd5b60008090505b8151811015610f085760086000838381518110610e8a57fe5b602002602001015173ffffffffffffffffffffffffffffffffffffffff1673ffffffffffffffffffffffffffffffffffffffff16815260200190815260200160002060009054906101000a900460ff16610efb57610efa828281518110610eed57fe5b6020026020010151612217565b5b8080600101915050610e71565b5050565b6000600560009054906101000a900460ff16905090565b600080600080905060008090505b600680549050811015610fdb57600a600060068381548110610f4f57fe5b9060005260206000200160009054906101000a900473ffffffffffffffffffffffffffffffffffffffff1673ffffffffffffffffffffffffffffffffffffffff1673ffffffffffffffffffffffffffffffffffffffff16815260200190815260200160002060009054906101000a900460ff1615610fce576001820191505b8080600101915050610f31565b5060008160068054905003905081819350935050509091565b600061108f338461108a85600160003373ffffffffffffffffffffffffffffffffffffffff1673ffffffffffffffffffffffffffffffffffffffff16815260200190815260200160002060008973ffffffffffffffffffffffffffffffffffffffff1673ffffffffffffffffffffffffffffffffffffffff168152602001908152602001600020546122e990919063ffffffff16565b611caa565b6001905092915050565b60608060606007805490506040519080825280602002602001820160405280156110d25781602001602082028038833980820191505090505b50905060008090505b60078054905081101561114d57611128600782815481106110f857fe5b9060005260206000200160009054906101000a900473ffffffffffffffffffffffffffffffffffffffff1661167a565b82828151811061113457fe5b60200260200101818152505080806001019150506110db565b50600781818054806020026020016040519081016040528092919081815260200182805480156111d257602002820191906000526020600020905b8160009054906101000a900473ffffffffffffffffffffffffffffffffffffffff1673ffffffffffffffffffffffffffffffffffffffff1681526020019060010190808311611188575b5050505050915092509250509091565b60008060008042905080600c54600b5493509350935050909192565b6001600c5402421015611279576040517f08c379a00000000000000000000000000000000000000000000000000000000081526004018080602001828103825260198152602001807f5468697320706f6c6c206e6f742079657420737461727465640000000000000081525060200191505060405180910390fd5b6001600b540242111561128f5761128e612371565b5b6001600b54024210611309576040517f08c379a00000000000000000000000000000000000000000000000000000000081526004018080602001828103825260168152602001807f5468697320706f6c6c2068617320657870697265642e0000000000000000000081525060200191505060405180910390fd5b600960008273ffffffffffffffffffffffffffffffffffffffff1673ffffffffffffffffffffffffffffffffffffffff16815260200190815260200160002060009054906101000a900460ff166113c8576040517f08c379a00000000000000000000000000000000000000000000000000000000081526004018080602001828103825260128152602001807f4973206e6f7420612043616e646964617465000000000000000000000000000081525060200191505060405180910390fd5b600860003373ffffffffffffffffffffffffffffffffffffffff1673ffffffffffffffffffffffffffffffffffffffff16815260200190815260200160002060009054906101000a900460ff16611487576040517f08c379a000000000000000000000000000000000000000000000000000000000815260040180806020018281038252601b8152602001807f557365722069736e277420617574686f72697a656420766f746572000000000081525060200191505060405180910390fd5b600a60003373ffffffffffffffffffffffffffffffffffffffff1673ffffffffffffffffffffffffffffffffffffffff16815260200190815260200160002060009054906101000a900460ff1615611547576040517f08c379a00000000000000000000000000000000000000000000000000000000081526004018080602001828103825260128152602001807f5573657220616c726561647920766f746564000000000000000000000000000081525060200191505060405180910390fd5b60006115523361167a565b116115c5576040517f08c379a000000000000000000000000000000000000000000000000000000000815260040180806020018281038252601a8152602001807f566f74657220646f65736e27742068617665206120746f6b656e00000000000081525060200191505060405180910390fd5b6115d0816001611a7d565b506001600a60003373ffffffffffffffffffffffffffffffffffffffff1673ffffffffffffffffffffffffffffffffffffffff16815260200190815260200160002060006101000a81548160ff02191690831515021790555050565b6116346117d0565b61163d57600080fd5b61164733866124ac565b61165084610e5a565b61165983611a94565b6116616118ca565b61166a82611c8f565b61167381611c74565b5050505050565b60008060008373ffffffffffffffffffffffffffffffffffffffff1673ffffffffffffffffffffffffffffffffffffffff168152602001908152602001600020549050919050565b6116ca6117d0565b6116d357600080fd5b600073ffffffffffffffffffffffffffffffffffffffff16600560019054906101000a900473ffffffffffffffffffffffffffffffffffffffff1673ffffffffffffffffffffffffffffffffffffffff167f8be0079c531659141344cd1fd0a4f28419497f9722a3daafe3b4186f6b6457e060405160405180910390a36000600560016101000a81548173ffffffffffffffffffffffffffffffffffffffff021916908373ffffffffffffffffffffffffffffffffffffffff160217905550565b600061179f8261167a565b9050919050565b6000600560019054906101000a900473ffffffffffffffffffffffffffffffffffffffff16905090565b6000600560019054906101000a900473ffffffffffffffffffffffffffffffffffffffff1673ffffffffffffffffffffffffffffffffffffffff163373ffffffffffffffffffffffffffffffffffffffff1614905090565b606060048054600181600116156101000203166002900480601f0160208091040260200160405190810160405280929190818152602001828054600181600116156101000203166002900480156118c05780601f10611895576101008083540402835291602001916118c0565b820191906000526020600020905b8154815290600101906020018083116118a357829003601f168201915b5050505050905090565b6118d26117d0565b6118db57600080fd5b60008090505b6006805490508110156119bb5760006118f8610d85565b1161196b576040517f08c379a000000000000000000000000000000000000000000000000000000000815260040180806020018281038252600e8152602001807f537570706c79206973206f76657200000000000000000000000000000000000081525060200191505060405180910390fd5b6119ad6006828154811061197b57fe5b9060005260206000200160009054906101000a900473ffffffffffffffffffffffffffffffffffffffff166001611a7d565b5080806001019150506118e1565b50565b6000611a733384611a6e8560405180606001604052806025815260200161291060259139600160003373ffffffffffffffffffffffffffffffffffffffff1673ffffffffffffffffffffffffffffffffffffffff16815260200190815260200160002060008a73ffffffffffffffffffffffffffffffffffffffff1673ffffffffffffffffffffffffffffffffffffffff168152602001908152602001600020546121579092919063ffffffff16565b611caa565b6001905092915050565b6000611a8a338484611ea1565b6001905092915050565b611a9c6117d0565b611aa557600080fd5b60008090505b8151811015611b425760096000838381518110611ac457fe5b602002602001015173ffffffffffffffffffffffffffffffffffffffff1673ffffffffffffffffffffffffffffffffffffffff16815260200190815260200160002060009054906101000a900460ff16611b3557611b34828281518110611b2757fe5b6020026020010151612667565b5b8080600101915050611aab565b5050565b60078181548110611b5357fe5b906000526020600020016000915054906101000a900473ffffffffffffffffffffffffffffffffffffffff1681565b6000611b8d8261167a565b9050919050565b60068181548110611ba157fe5b906000526020600020016000915054906101000a900473ffffffffffffffffffffffffffffffffffffffff1681565b6000600160008473ffffffffffffffffffffffffffffffffffffffff1673ffffffffffffffffffffffffffffffffffffffff16815260200190815260200160002060008373ffffffffffffffffffffffffffffffffffffffff1673ffffffffffffffffffffffffffffffffffffffff16815260200190815260200160002054905092915050565b611c5f6117d0565b611c6857600080fd5b611c7181612739565b50565b611c7c6117d0565b611c8557600080fd5b80600b8190555050565b611c976117d0565b611ca057600080fd5b80600c8190555050565b600073ffffffffffffffffffffffffffffffffffffffff168373ffffffffffffffffffffffffffffffffffffffff161415611d30576040517f08c379a00000000000000000000000000000000000000000000000000000000081526004018080602001828103825260248152602001806128ec6024913960400191505060405180910390fd5b600073ffffffffffffffffffffffffffffffffffffffff168273ffffffffffffffffffffffffffffffffffffffff161415611db6576040517f08c379a00000000000000000000000000000000000000000000000000000000081526004018080602001828103825260228152602001806128576022913960400191505060405180910390fd5b80600160008573ffffffffffffffffffffffffffffffffffffffff1673ffffffffffffffffffffffffffffffffffffffff16815260200190815260200160002060008473ffffffffffffffffffffffffffffffffffffffff1673ffffffffffffffffffffffffffffffffffffffff168152602001908152602001600020819055508173ffffffffffffffffffffffffffffffffffffffff168373ffffffffffffffffffffffffffffffffffffffff167f8c5be1e5ebec7d5bd14f71427d1e84f3dd0314c0f7b2291e5b200ac8c7c3b925836040518082815260200191505060405180910390a3505050565b600073ffffffffffffffffffffffffffffffffffffffff168373ffffffffffffffffffffffffffffffffffffffff161415611f27576040517f08c379a00000000000000000000000000000000000000000000000000000000081526004018080602001828103825260258152602001806128c76025913960400191505060405180910390fd5b600073ffffffffffffffffffffffffffffffffffffffff168273ffffffffffffffffffffffffffffffffffffffff161415611fad576040517f08c379a00000000000000000000000000000000000000000000000000000000081526004018080602001828103825260238152602001806128346023913960400191505060405180910390fd5b61201881604051806060016040528060268152602001612879602691396000808773ffffffffffffffffffffffffffffffffffffffff1673ffffffffffffffffffffffffffffffffffffffff168152602001908152602001600020546121579092919063ffffffff16565b6000808573ffffffffffffffffffffffffffffffffffffffff1673ffffffffffffffffffffffffffffffffffffffff168152602001908152602001600020819055506120ab816000808573ffffffffffffffffffffffffffffffffffffffff1673ffffffffffffffffffffffffffffffffffffffff168152602001908152602001600020546122e990919063ffffffff16565b6000808473ffffffffffffffffffffffffffffffffffffffff1673ffffffffffffffffffffffffffffffffffffffff168152602001908152602001600020819055508173ffffffffffffffffffffffffffffffffffffffff168373ffffffffffffffffffffffffffffffffffffffff167fddf252ad1be2c89b69c2b068fc378daa952ba7f163c4a11628f55a4df523b3ef836040518082815260200191505060405180910390a3505050565b6000838311158290612204576040517f08c379a00000000000000000000000000000000000000000000000000000000081526004018080602001828103825283818151815260200191508051906020019080838360005b838110156121c95780820151818401526020810190506121ae565b50505050905090810190601f1680156121f65780820380516001836020036101000a031916815260200191505b509250505060405180910390fd5b5060008385039050809150509392505050565b61221f6117d0565b61222857600080fd5b6001600860008373ffffffffffffffffffffffffffffffffffffffff1673ffffffffffffffffffffffffffffffffffffffff16815260200190815260200160002060006101000a81548160ff02191690831515021790555060068190806001815401808255809150509060018203906000526020600020016000909192909190916101000a81548173ffffffffffffffffffffffffffffffffffffffff021916908373ffffffffffffffffffffffffffffffffffffffff1602179055505050565b600080828401905083811015612367576040517f08c379a000000000000000000000000000000000000000000000000000000000815260040180806020018281038252601b8152602001807f536166654d6174683a206164646974696f6e206f766572666c6f77000000000081525060200191505060405180910390fd5b8091505092915050565b60008090505b6006805490508110156124a957600a60006006838154811061239557fe5b9060005260206000200160009054906101000a900473ffffffffffffffffffffffffffffffffffffffff1673ffffffffffffffffffffffffffffffffffffffff1673ffffffffffffffffffffffffffffffffffffffff16815260200190815260200160002060009054906101000a900460ff1661249c576001600a60006006848154811061241f57fe5b9060005260206000200160009054906101000a900473ffffffffffffffffffffffffffffffffffffffff1673ffffffffffffffffffffffffffffffffffffffff1673ffffffffffffffffffffffffffffffffffffffff16815260200190815260200160002060006101000a81548160ff0219169083151502179055505b8080600101915050612377565b50565b600073ffffffffffffffffffffffffffffffffffffffff168273ffffffffffffffffffffffffffffffffffffffff16141561254f576040517f08c379a000000000000000000000000000000000000000000000000000000000815260040180806020018281038252601f8152602001807f45524332303a206d696e7420746f20746865207a65726f20616464726573730081525060200191505060405180910390fd5b612564816002546122e990919063ffffffff16565b6002819055506125bb816000808573ffffffffffffffffffffffffffffffffffffffff1673ffffffffffffffffffffffffffffffffffffffff168152602001908152602001600020546122e990919063ffffffff16565b6000808473ffffffffffffffffffffffffffffffffffffffff1673ffffffffffffffffffffffffffffffffffffffff168152602001908152602001600020819055508173ffffffffffffffffffffffffffffffffffffffff16600073ffffffffffffffffffffffffffffffffffffffff167fddf252ad1be2c89b69c2b068fc378daa952ba7f163c4a11628f55a4df523b3ef836040518082815260200191505060405180910390a35050565b61266f6117d0565b61267857600080fd5b6001600960008373ffffffffffffffffffffffffffffffffffffffff1673ffffffffffffffffffffffffffffffffffffffff16815260200190815260200160002060006101000a81548160ff02191690831515021790555060078190806001815401808255809150509060018203906000526020600020016000909192909190916101000a81548173ffffffffffffffffffffffffffffffffffffffff021916908373ffffffffffffffffffffffffffffffffffffffff1602179055505050565b600073ffffffffffffffffffffffffffffffffffffffff168173ffffffffffffffffffffffffffffffffffffffff16141561277357600080fd5b8073ffffffffffffffffffffffffffffffffffffffff16600560019054906101000a900473ffffffffffffffffffffffffffffffffffffffff1673ffffffffffffffffffffffffffffffffffffffff167f8be0079c531659141344cd1fd0a4f28419497f9722a3daafe3b4186f6b6457e060405160405180910390a380600560016101000a81548173ffffffffffffffffffffffffffffffffffffffff021916908373ffffffffffffffffffffffffffffffffffffffff1602179055505056fe45524332303a207472616e7366657220746f20746865207a65726f206164647265737345524332303a20617070726f766520746f20746865207a65726f206164647265737345524332303a207472616e7366657220616d6f756e7420657863656564732062616c616e636545524332303a207472616e7366657220616d6f756e74206578636565647320616c6c6f77616e636545524332303a207472616e736665722066726f6d20746865207a65726f206164647265737345524332303a20617070726f76652066726f6d20746865207a65726f206164647265737345524332303a2064656372656173656420616c6c6f77616e63652062656c6f77207a65726fa265627a7a7231582097ebc633703ce92a7b81a1f5d90a2e4178afc9ed6b65fef75f425a27f83c7ca864736f6c634300050c0032",
  "source": "pragma solidity >=0.4.22 <0.6.0;\r\n\r\nimport  \"./erc20.sol\";\r\nimport  \"./erc20Detailed.sol\";\r\nimport  \"./Owned.sol\";\r\n\r\ncontract ElectionToken is erc20, erc20Detailed, Owned{\r\n\r\n    address[] public voterAddresses;\r\n    address[] public candidateAddresses;\r\n\r\n    mapping (address => bool) voterAddressInitialized;\r\n    mapping (address => bool) candidateAddressInitialized;\r\n\r\n    mapping (address => bool) voted;\r\n\r\n    /*https://www.unixtimestamp.com/index.php*/\r\n    uint256 private expiration;    // contract expiration time *** 1577971200 =2/1/2020 13:20:00\r\n    uint256 private start;         // contract start time\r\n\r\n    /*constructor(uint256 _initialSupply, address[] memory _voterAddresses, address[] memory _candidateAddresses, uint256 _start, uint256 _end) erc20Detailed(\"VotingToken\", \"VTC\", 0)public{    //_initialTokenSupply = number of voters\r\n        _mint(msg.sender, _initialSupply);  \r\n        addVotersList(_voterAddresses);\r\n        addCandidatesList(_candidateAddresses);\r\n        distributeTokens();\r\n        setElectionStartTime(_start);\r\n        setElectionExpirationTime(_end);\r\n    }*/\r\n    constructor() erc20Detailed(\"VotingToken\", \"VTC\", 0)public onlyOwner{    //_initialTokenSupply = number of voters\r\n    }\r\n\r\n    function initContract(uint256 _initialSupply, address[] memory _voterAddresses, address[] memory _candidateAddresses, uint256 _start, uint256 _end) public onlyOwner{\r\n        _mint(msg.sender, _initialSupply);  \r\n        addVotersList(_voterAddresses);\r\n        addCandidatesList(_candidateAddresses);\r\n        distributeTokens();\r\n        setElectionStartTime(_start);\r\n        setElectionExpirationTime(_end);\r\n    }\r\n\r\n    function addVoterAddress(address _address) internal onlyOwner{\r\n        voterAddressInitialized[_address] = true;\r\n        voterAddresses.push(_address);\r\n    }\r\n\r\n    function addVotersList(address[] memory addresses) public onlyOwner{\r\n        //require(now < (start * 1 seconds), \"Poll started v\");\r\n        for(uint i = 0; i < addresses.length; i++){\r\n            if(!voterAddressInitialized[addresses[i]]){\r\n                addVoterAddress(addresses[i]);\r\n            }\r\n        }\r\n    }\r\n\r\n    function addCandidateAddress(address _address) internal onlyOwner{\r\n        candidateAddressInitialized[_address] = true;\r\n        candidateAddresses.push(_address);\r\n    }\r\n\r\n    function addCandidatesList(address[] memory addresses) public onlyOwner{\r\n        //require(now < (start * 1 seconds), \"Poll started c\");\r\n        for(uint i = 0; i < addresses.length; i++){\r\n            if(!candidateAddressInitialized[addresses[i]]){\r\n                addCandidateAddress(addresses[i]);\r\n            }\r\n        }\r\n    }\r\n\r\n    function distributeTokens() public onlyOwner{\r\n        for(uint i = 0; i < voterAddresses.length; i++){\r\n            require(totalSupply() > 0,\"Supply is over\");\r\n            transfer(voterAddresses[i],1);\r\n        }\r\n    }\r\n\r\n    function vote(address candidateAddress) public {\r\n        //require(!timeLimit,\"Election ended\");\r\n        require(now >= (start * 1 seconds), \"This poll not yet started\");\r\n        if(now > (expiration * 1 seconds)){\r\n            endElection();\r\n        }\r\n        require(now < (expiration * 1 seconds), \"This poll has expired.\");\r\n        require(candidateAddressInitialized[candidateAddress],\"Is not a Candidate\");\r\n        require(voterAddressInitialized[msg.sender],\"User isn't authorized voter\");\r\n        require(!voted[msg.sender],\"User already voted\");\r\n        require(balanceOf(msg.sender) > 0,\"Voter doesn't have a token\");\r\n        transfer(candidateAddress,1);\r\n        voted[msg.sender] = true;\r\n    }\r\n\r\n    function getResults() public view returns (address[] memory , uint256[] memory ){\r\n        uint256[] memory results = new uint256[](candidateAddresses.length);\r\n        for(uint i = 0; i < candidateAddresses.length; i++){\r\n            results[i] = balanceOf(candidateAddresses[i]);\r\n        }\r\n        return (candidateAddresses,results);\r\n    }\r\n\r\n    function getStatistics() public view returns (uint256 , uint256 ){      // return how many voted and didnt how many didn't\r\n        uint256 didVoteAmount = 0;\r\n        for(uint i = 0; i < voterAddresses.length; i++){\r\n            if(voted[voterAddresses[i]]){  // if voter voted\r\n                didVoteAmount += 1;\r\n            }\r\n        }\r\n        uint256 didntVoteAmount = voterAddresses.length - didVoteAmount;\r\n        return (didVoteAmount,didntVoteAmount);\r\n    }\r\n\r\n    function endElection() private {        // if voter didnt vote set him as if he did\r\n        for(uint i = 0; i < voterAddresses.length; i++){\r\n            if(!voted[voterAddresses[i]]){  \r\n                voted[voterAddresses[i]] = true;\r\n            }\r\n        }\r\n    }\r\n\r\n    function setElectionStartTime(uint _start) public onlyOwner{\r\n        start = _start;\r\n    }\r\n\r\n    function setElectionExpirationTime(uint _expiration) public onlyOwner{\r\n        expiration = _expiration;\r\n    }\r\n    \r\n    function displayTime() public view returns(uint256, uint256, uint256){\r\n        uint256 timeNow = now;\r\n        return (timeNow, start, expiration);\r\n    }\r\n\r\n    //******for test******\r\n    function balanceOFFFF(address _address)public view returns (uint256){\r\n        return balanceOf(_address);\r\n    }\r\n    function balanceOFFF(address _address)public view returns (uint256){\r\n        return balanceOf(_address);\r\n    }\r\n}\r\n",
  "sourcePath": "C:/Users/Misha/Downloads/Votechain/contracts/ElectionToken.sol",
  "compiler": {
    "name": "solc",
    "version": "0.5.12+commit.7709ece9.Emscripten.clang"
  },
  "schemaVersion": "3.0.19",
  "updatedAt": "2020-01-04T13:44:13.616Z",
  "devdoc": {
    "methods": {
      "allowance(address,address)": {
        "details": "See {IERC20-allowance}."
      },
      "approve(address,uint256)": {
        "details": "See {IERC20-approve}.      * Requirements:      * - `spender` cannot be the zero address."
      },
      "balanceOf(address)": {
        "details": "See {IERC20-balanceOf}."
      },
      "decimals()": {
        "details": "Returns the number of decimals used to get its user representation. For example, if `decimals` equals `2`, a balance of `505` tokens should be displayed to a user as `5,05` (`505 / 10 ** 2`).      * Tokens usually opt for a value of 18, imitating the relationship between Ether and Wei.      * NOTE: This information is only used for _display_ purposes: it in no way affects any of the arithmetic of the contract, including {IERC20-balanceOf} and {IERC20-transfer}."
      },
      "decreaseAllowance(address,uint256)": {
        "details": "Atomically decreases the allowance granted to `spender` by the caller.      * This is an alternative to {approve} that can be used as a mitigation for problems described in {IERC20-approve}.      * Emits an {Approval} event indicating the updated allowance.      * Requirements:      * - `spender` cannot be the zero address. - `spender` must have allowance for the caller of at least `subtractedValue`."
      },
      "increaseAllowance(address,uint256)": {
        "details": "Atomically increases the allowance granted to `spender` by the caller.      * This is an alternative to {approve} that can be used as a mitigation for problems described in {IERC20-approve}.      * Emits an {Approval} event indicating the updated allowance.      * Requirements:      * - `spender` cannot be the zero address."
      },
      "isOwner()": {
        "return": "true if `msg.sender` is the owner of the contract."
      },
      "name()": {
        "details": "Returns the name of the token."
      },
      "owner()": {
        "return": "the address of the owner."
      },
      "renounceOwnership()": {
        "details": "Allows the current owner to relinquish control of the contract."
      },
      "symbol()": {
        "details": "Returns the symbol of the token, usually a shorter version of the name."
      },
      "totalSupply()": {
        "details": "See {IERC20-totalSupply}."
      },
      "transfer(address,uint256)": {
        "details": "See {IERC20-transfer}.      * Requirements:      * - `recipient` cannot be the zero address. - the caller must have a balance of at least `amount`."
      },
      "transferFrom(address,address,uint256)": {
        "details": "See {IERC20-transferFrom}.      * Emits an {Approval} event indicating the updated allowance. This is not required by the EIP. See the note at the beginning of {ERC20};      * Requirements: - `sender` and `recipient` cannot be the zero address. - `sender` must have a balance of at least `amount`. - the caller must have allowance for `sender`'s tokens of at least `amount`."
      },
      "transferOwnership(address)": {
        "details": "Allows the current owner to transfer control of the contract to a newOwner.",
        "params": {
          "newOwner": "The address to transfer ownership to."
        }
      }
    }
  },
  "userdoc": {
    "methods": {
      "renounceOwnership()": {
        "notice": "Renouncing to ownership will leave the contract without an owner. It will not be possible to call the functions with the `onlyOwner` modifier anymore."
      }
    }
  }
}