{
  "contractName": "ElectionToken",
  "abi": [
    {
      "inputs": [
        {
          "internalType": "string",
          "name": "_name",
          "type": "string"
        },
        {
          "internalType": "string",
          "name": "_description",
          "type": "string"
        },
        {
          "internalType": "uint256",
          "name": "_initialSupply",
          "type": "uint256"
        },
        {
          "internalType": "address[]",
          "name": "_voterAddresses",
          "type": "address[]"
        },
        {
          "internalType": "uint256",
          "name": "_start",
          "type": "uint256"
        },
        {
          "internalType": "uint256",
          "name": "_end",
          "type": "uint256"
        }
      ],
      "payable": false,
      "stateMutability": "nonpayable",
      "type": "constructor"
    },
    {
      "anonymous": false,
      "inputs": [
        {
          "indexed": true,
          "internalType": "address",
          "name": "owner",
          "type": "address"
        },
        {
          "indexed": true,
          "internalType": "address",
          "name": "spender",
          "type": "address"
        },
        {
          "indexed": false,
          "internalType": "uint256",
          "name": "value",
          "type": "uint256"
        }
      ],
      "name": "Approval",
      "type": "event"
    },
    {
      "anonymous": false,
      "inputs": [
        {
          "indexed": true,
          "internalType": "address",
          "name": "previousOwner",
          "type": "address"
        },
        {
          "indexed": true,
          "internalType": "address",
          "name": "newOwner",
          "type": "address"
        }
      ],
      "name": "OwnershipTransferred",
      "type": "event"
    },
    {
      "anonymous": false,
      "inputs": [
        {
          "indexed": true,
          "internalType": "address",
          "name": "from",
          "type": "address"
        },
        {
          "indexed": true,
          "internalType": "address",
          "name": "to",
          "type": "address"
        },
        {
          "indexed": false,
          "internalType": "uint256",
          "name": "value",
          "type": "uint256"
        }
      ],
      "name": "Transfer",
      "type": "event"
    },
    {
      "anonymous": false,
      "inputs": [
        {
          "indexed": true,
          "internalType": "address",
          "name": "_candidateId",
          "type": "address"
        }
      ],
      "name": "votedEvent",
      "type": "event"
    },
    {
      "constant": true,
      "inputs": [
        {
          "internalType": "address",
          "name": "owner",
          "type": "address"
        },
        {
          "internalType": "address",
          "name": "spender",
          "type": "address"
        }
      ],
      "name": "allowance",
      "outputs": [
        {
          "internalType": "uint256",
          "name": "",
          "type": "uint256"
        }
      ],
      "payable": false,
      "stateMutability": "view",
      "type": "function"
    },
    {
      "constant": false,
      "inputs": [
        {
          "internalType": "address",
          "name": "spender",
          "type": "address"
        },
        {
          "internalType": "uint256",
          "name": "amount",
          "type": "uint256"
        }
      ],
      "name": "approve",
      "outputs": [
        {
          "internalType": "bool",
          "name": "",
          "type": "bool"
        }
      ],
      "payable": false,
      "stateMutability": "nonpayable",
      "type": "function"
    },
    {
      "constant": true,
      "inputs": [
        {
          "internalType": "address",
          "name": "account",
          "type": "address"
        }
      ],
      "name": "balanceOf",
      "outputs": [
        {
          "internalType": "uint256",
          "name": "",
          "type": "uint256"
        }
      ],
      "payable": false,
      "stateMutability": "view",
      "type": "function"
    },
    {
      "constant": true,
      "inputs": [
        {
          "internalType": "uint256",
          "name": "",
          "type": "uint256"
        }
      ],
      "name": "candidateAddresses",
      "outputs": [
        {
          "internalType": "address",
          "name": "",
          "type": "address"
        }
      ],
      "payable": false,
      "stateMutability": "view",
      "type": "function"
    },
    {
      "constant": true,
      "inputs": [
        {
          "internalType": "uint256",
          "name": "",
          "type": "uint256"
        }
      ],
      "name": "candidates",
      "outputs": [
        {
          "internalType": "uint256",
          "name": "id",
          "type": "uint256"
        },
        {
          "internalType": "string",
          "name": "name",
          "type": "string"
        },
        {
          "internalType": "string",
          "name": "description",
          "type": "string"
        },
        {
          "internalType": "address",
          "name": "candidateAdd",
          "type": "address"
        },
        {
          "internalType": "string",
          "name": "image",
          "type": "string"
        },
        {
          "internalType": "bool",
          "name": "candidateInitialized",
          "type": "bool"
        }
      ],
      "payable": false,
      "stateMutability": "view",
      "type": "function"
    },
    {
      "constant": true,
      "inputs": [],
      "name": "candidatesCount",
      "outputs": [
        {
          "internalType": "uint256",
          "name": "",
          "type": "uint256"
        }
      ],
      "payable": false,
      "stateMutability": "view",
      "type": "function"
    },
    {
      "constant": true,
      "inputs": [],
      "name": "decimals",
      "outputs": [
        {
          "internalType": "uint8",
          "name": "",
          "type": "uint8"
        }
      ],
      "payable": false,
      "stateMutability": "view",
      "type": "function"
    },
    {
      "constant": false,
      "inputs": [
        {
          "internalType": "address",
          "name": "spender",
          "type": "address"
        },
        {
          "internalType": "uint256",
          "name": "subtractedValue",
          "type": "uint256"
        }
      ],
      "name": "decreaseAllowance",
      "outputs": [
        {
          "internalType": "bool",
          "name": "",
          "type": "bool"
        }
      ],
      "payable": false,
      "stateMutability": "nonpayable",
      "type": "function"
    },
    {
      "constant": true,
      "inputs": [],
      "name": "electionDescription",
      "outputs": [
        {
          "internalType": "string",
          "name": "",
          "type": "string"
        }
      ],
      "payable": false,
      "stateMutability": "view",
      "type": "function"
    },
    {
      "constant": true,
      "inputs": [],
      "name": "electionName",
      "outputs": [
        {
          "internalType": "string",
          "name": "",
          "type": "string"
        }
      ],
      "payable": false,
      "stateMutability": "view",
      "type": "function"
    },
    {
      "constant": false,
      "inputs": [
        {
          "internalType": "address",
          "name": "spender",
          "type": "address"
        },
        {
          "internalType": "uint256",
          "name": "addedValue",
          "type": "uint256"
        }
      ],
      "name": "increaseAllowance",
      "outputs": [
        {
          "internalType": "bool",
          "name": "",
          "type": "bool"
        }
      ],
      "payable": false,
      "stateMutability": "nonpayable",
      "type": "function"
    },
    {
      "constant": true,
      "inputs": [],
      "name": "isOwner",
      "outputs": [
        {
          "internalType": "bool",
          "name": "",
          "type": "bool"
        }
      ],
      "payable": false,
      "stateMutability": "view",
      "type": "function"
    },
    {
      "constant": true,
      "inputs": [],
      "name": "name",
      "outputs": [
        {
          "internalType": "string",
          "name": "",
          "type": "string"
        }
      ],
      "payable": false,
      "stateMutability": "view",
      "type": "function"
    },
    {
      "constant": true,
      "inputs": [],
      "name": "owner",
      "outputs": [
        {
          "internalType": "address",
          "name": "",
          "type": "address"
        }
      ],
      "payable": false,
      "stateMutability": "view",
      "type": "function"
    },
    {
      "constant": false,
      "inputs": [],
      "name": "renounceOwnership",
      "outputs": [],
      "payable": false,
      "stateMutability": "nonpayable",
      "type": "function"
    },
    {
      "constant": true,
      "inputs": [],
      "name": "symbol",
      "outputs": [
        {
          "internalType": "string",
          "name": "",
          "type": "string"
        }
      ],
      "payable": false,
      "stateMutability": "view",
      "type": "function"
    },
    {
      "constant": true,
      "inputs": [],
      "name": "totalSupply",
      "outputs": [
        {
          "internalType": "uint256",
          "name": "",
          "type": "uint256"
        }
      ],
      "payable": false,
      "stateMutability": "view",
      "type": "function"
    },
    {
      "constant": false,
      "inputs": [
        {
          "internalType": "address",
          "name": "recipient",
          "type": "address"
        },
        {
          "internalType": "uint256",
          "name": "amount",
          "type": "uint256"
        }
      ],
      "name": "transfer",
      "outputs": [
        {
          "internalType": "bool",
          "name": "",
          "type": "bool"
        }
      ],
      "payable": false,
      "stateMutability": "nonpayable",
      "type": "function"
    },
    {
      "constant": false,
      "inputs": [
        {
          "internalType": "address",
          "name": "sender",
          "type": "address"
        },
        {
          "internalType": "address",
          "name": "recipient",
          "type": "address"
        },
        {
          "internalType": "uint256",
          "name": "amount",
          "type": "uint256"
        }
      ],
      "name": "transferFrom",
      "outputs": [
        {
          "internalType": "bool",
          "name": "",
          "type": "bool"
        }
      ],
      "payable": false,
      "stateMutability": "nonpayable",
      "type": "function"
    },
    {
      "constant": false,
      "inputs": [
        {
          "internalType": "address",
          "name": "newOwner",
          "type": "address"
        }
      ],
      "name": "transferOwnership",
      "outputs": [],
      "payable": false,
      "stateMutability": "nonpayable",
      "type": "function"
    },
    {
      "constant": true,
      "inputs": [
        {
          "internalType": "uint256",
          "name": "",
          "type": "uint256"
        }
      ],
      "name": "voterAddresses",
      "outputs": [
        {
          "internalType": "address",
          "name": "",
          "type": "address"
        }
      ],
      "payable": false,
      "stateMutability": "view",
      "type": "function"
    },
    {
      "constant": true,
      "inputs": [],
      "name": "getElectionData",
      "outputs": [
        {
          "internalType": "string",
          "name": "",
          "type": "string"
        },
        {
          "internalType": "string",
          "name": "",
          "type": "string"
        },
        {
          "internalType": "uint256",
          "name": "",
          "type": "uint256"
        }
      ],
      "payable": false,
      "stateMutability": "view",
      "type": "function"
    },
    {
      "constant": false,
      "inputs": [
        {
          "internalType": "string",
          "name": "_name",
          "type": "string"
        }
      ],
      "name": "setElectionName",
      "outputs": [],
      "payable": false,
      "stateMutability": "nonpayable",
      "type": "function"
    },
    {
      "constant": true,
      "inputs": [],
      "name": "getElectionName",
      "outputs": [
        {
          "internalType": "string",
          "name": "",
          "type": "string"
        }
      ],
      "payable": false,
      "stateMutability": "view",
      "type": "function"
    },
    {
      "constant": false,
      "inputs": [
        {
          "internalType": "string",
          "name": "_description",
          "type": "string"
        }
      ],
      "name": "setElectionDescription",
      "outputs": [],
      "payable": false,
      "stateMutability": "nonpayable",
      "type": "function"
    },
    {
      "constant": true,
      "inputs": [],
      "name": "getElectionDescription",
      "outputs": [
        {
          "internalType": "string",
          "name": "",
          "type": "string"
        }
      ],
      "payable": false,
      "stateMutability": "view",
      "type": "function"
    },
    {
      "constant": false,
      "inputs": [
        {
          "internalType": "address[]",
          "name": "addresses",
          "type": "address[]"
        }
      ],
      "name": "addVotersList",
      "outputs": [],
      "payable": false,
      "stateMutability": "nonpayable",
      "type": "function"
    },
    {
      "constant": false,
      "inputs": [
        {
          "internalType": "address",
          "name": "_address",
          "type": "address"
        },
        {
          "internalType": "string",
          "name": "_name",
          "type": "string"
        },
        {
          "internalType": "string",
          "name": "_description",
          "type": "string"
        },
        {
          "internalType": "string",
          "name": "_image",
          "type": "string"
        }
      ],
      "name": "addCandidate",
      "outputs": [],
      "payable": false,
      "stateMutability": "nonpayable",
      "type": "function"
    },
    {
      "constant": false,
      "inputs": [
        {
          "internalType": "address",
          "name": "_address",
          "type": "address"
        },
        {
          "internalType": "string",
          "name": "_name",
          "type": "string"
        },
        {
          "internalType": "string",
          "name": "_description",
          "type": "string"
        },
        {
          "internalType": "string",
          "name": "_image",
          "type": "string"
        }
      ],
      "name": "editCandidateByAddress",
      "outputs": [],
      "payable": false,
      "stateMutability": "nonpayable",
      "type": "function"
    },
    {
      "constant": false,
      "inputs": [
        {
          "internalType": "address",
          "name": "_address",
          "type": "address"
        }
      ],
      "name": "deleteCandidateByAddress",
      "outputs": [
        {
          "internalType": "bool",
          "name": "",
          "type": "bool"
        }
      ],
      "payable": false,
      "stateMutability": "nonpayable",
      "type": "function"
    },
    {
      "constant": false,
      "inputs": [],
      "name": "distributeTokens",
      "outputs": [],
      "payable": false,
      "stateMutability": "nonpayable",
      "type": "function"
    },
    {
      "constant": false,
      "inputs": [
        {
          "internalType": "address",
          "name": "candidateAddress",
          "type": "address"
        }
      ],
      "name": "vote",
      "outputs": [],
      "payable": false,
      "stateMutability": "nonpayable",
      "type": "function"
    },
    {
      "constant": true,
      "inputs": [],
      "name": "getResults",
      "outputs": [
        {
          "internalType": "uint256[]",
          "name": "",
          "type": "uint256[]"
        }
      ],
      "payable": false,
      "stateMutability": "view",
      "type": "function"
    },
    {
      "constant": true,
      "inputs": [],
      "name": "getCandidateData",
      "outputs": [
        {
          "internalType": "string[]",
          "name": "",
          "type": "string[]"
        },
        {
          "internalType": "string[]",
          "name": "",
          "type": "string[]"
        }
      ],
      "payable": false,
      "stateMutability": "view",
      "type": "function"
    },
    {
      "constant": false,
      "inputs": [
        {
          "internalType": "uint256",
          "name": "_start",
          "type": "uint256"
        }
      ],
      "name": "setElectionStartTime",
      "outputs": [],
      "payable": false,
      "stateMutability": "nonpayable",
      "type": "function"
    },
    {
      "constant": false,
      "inputs": [
        {
          "internalType": "uint256",
          "name": "_expiration",
          "type": "uint256"
        }
      ],
      "name": "setElectionExpirationTime",
      "outputs": [],
      "payable": false,
      "stateMutability": "nonpayable",
      "type": "function"
    },
    {
      "constant": false,
      "inputs": [
        {
          "internalType": "uint256",
          "name": "_start",
          "type": "uint256"
        }
      ],
      "name": "changeElectionStartTime",
      "outputs": [],
      "payable": false,
      "stateMutability": "nonpayable",
      "type": "function"
    },
    {
      "constant": false,
      "inputs": [
        {
          "internalType": "uint256",
          "name": "_expiration",
          "type": "uint256"
        }
      ],
      "name": "changeElectionExpirationTime",
      "outputs": [],
      "payable": false,
      "stateMutability": "nonpayable",
      "type": "function"
    },
    {
      "constant": true,
      "inputs": [],
      "name": "displayTime",
      "outputs": [
        {
          "internalType": "uint256",
          "name": "",
          "type": "uint256"
        },
        {
          "internalType": "uint256",
          "name": "",
          "type": "uint256"
        },
        {
          "internalType": "uint256",
          "name": "",
          "type": "uint256"
        }
      ],
      "payable": false,
      "stateMutability": "view",
      "type": "function"
    },
    {
      "constant": true,
      "inputs": [],
      "name": "displayEndTime",
      "outputs": [
        {
          "internalType": "uint256",
          "name": "",
          "type": "uint256"
        }
      ],
      "payable": false,
      "stateMutability": "view",
      "type": "function"
    },
    {
      "constant": true,
      "inputs": [],
      "name": "balanceOFFFF",
      "outputs": [
        {
          "internalType": "uint256[]",
          "name": "",
          "type": "uint256[]"
        }
      ],
      "payable": false,
      "stateMutability": "view",
      "type": "function"
    }
  ],
  "bytecode": "0x60806040523480156200001157600080fd5b5060405162004fad38038062004fad833981810160405262000037919081019062000ce5565b6040518060400160405280600b81526020017f566f74696e67546f6b656e0000000000000000000000000000000000000000008152506040518060400160405280600381526020017f565443000000000000000000000000000000000000000000000000000000000081525060008260039080519060200190620000bd92919062000b1f565b508160049080519060200190620000d692919062000b1f565b5080600560006101000a81548160ff021916908360ff16021790555050505033600560016101000a81548173ffffffffffffffffffffffffffffffffffffffff021916908373ffffffffffffffffffffffffffffffffffffffff160217905550600560019054906101000a900473ffffffffffffffffffffffffffffffffffffffff1673ffffffffffffffffffffffffffffffffffffffff16600073ffffffffffffffffffffffffffffffffffffffff167f8be0079c531659141344cd1fd0a4f28419497f9722a3daafe3b4186f6b6457e060405160405180910390a3620001c533856200023660201b60201c565b620001d686620003d160201b60201c565b620001e7856200040760201b60201c565b620001f8836200043d60201b60201c565b620002086200050560201b60201c565b6200021982620005e660201b60201c565b6200022a816200060a60201b60201c565b505050505050620011f2565b600073ffffffffffffffffffffffffffffffffffffffff168273ffffffffffffffffffffffffffffffffffffffff161415620002a9576040517f08c379a0000000000000000000000000000000000000000000000000000000008152600401620002a0906200105a565b60405180910390fd5b620002c5816002546200062e60201b62002aff1790919060201c565b60028190555062000323816000808573ffffffffffffffffffffffffffffffffffffffff1673ffffffffffffffffffffffffffffffffffffffff168152602001908152602001600020546200062e60201b62002aff1790919060201c565b6000808473ffffffffffffffffffffffffffffffffffffffff1673ffffffffffffffffffffffffffffffffffffffff168152602001908152602001600020819055508173ffffffffffffffffffffffffffffffffffffffff16600073ffffffffffffffffffffffffffffffffffffffff167fddf252ad1be2c89b69c2b068fc378daa952ba7f163c4a11628f55a4df523b3ef83604051620003c591906200107c565b60405180910390a35050565b620003e16200068660201b60201c565b620003eb57600080fd5b80600890805190602001906200040392919062000b1f565b5050565b620004176200068660201b60201c565b6200042157600080fd5b80600990805190602001906200043992919062000b1f565b5050565b6200044d6200068660201b60201c565b6200045757600080fd5b60008090505b81518110156200050157600c60008383815181106200047857fe5b602002602001015173ffffffffffffffffffffffffffffffffffffffff1673ffffffffffffffffffffffffffffffffffffffff16815260200190815260200160002060009054906101000a900460ff16620004f357620004f2828281518110620004de57fe5b6020026020010151620006de60201b60201c565b5b80806001019150506200045d565b5050565b620005156200068660201b60201c565b6200051f57600080fd5b60008090505b600a80549050811015620005e35760006200054633620007b960201b60201c565b1162000589576040517f08c379a0000000000000000000000000000000000000000000000000000000008152600401620005809062000ff4565b60405180910390fd5b620005d4600a82815481106200059b57fe5b9060005260206000200160009054906101000a900473ffffffffffffffffffffffffffffffffffffffff1660016200080160201b60201c565b50808060010191505062000525565b50565b620005f66200068660201b60201c565b6200060057600080fd5b8060108190555050565b6200061a6200068660201b60201c565b6200062457600080fd5b80600f8190555050565b6000808284019050838110156200067c576040517f08c379a0000000000000000000000000000000000000000000000000000000008152600401620006739062001016565b60405180910390fd5b8091505092915050565b6000600560019054906101000a900473ffffffffffffffffffffffffffffffffffffffff1673ffffffffffffffffffffffffffffffffffffffff163373ffffffffffffffffffffffffffffffffffffffff1614905090565b620006ee6200068660201b60201c565b620006f857600080fd5b6001600c60008373ffffffffffffffffffffffffffffffffffffffff1673ffffffffffffffffffffffffffffffffffffffff16815260200190815260200160002060006101000a81548160ff021916908315150217905550600a8190806001815401808255809150509060018203906000526020600020016000909192909190916101000a81548173ffffffffffffffffffffffffffffffffffffffff021916908373ffffffffffffffffffffffffffffffffffffffff1602179055505050565b60008060008373ffffffffffffffffffffffffffffffffffffffff1673ffffffffffffffffffffffffffffffffffffffff168152602001908152602001600020549050919050565b6000620008163384846200082060201b60201c565b6001905092915050565b600073ffffffffffffffffffffffffffffffffffffffff168373ffffffffffffffffffffffffffffffffffffffff16141562000893576040517f08c379a00000000000000000000000000000000000000000000000000000000081526004016200088a9062001038565b60405180910390fd5b600073ffffffffffffffffffffffffffffffffffffffff168273ffffffffffffffffffffffffffffffffffffffff16141562000906576040517f08c379a0000000000000000000000000000000000000000000000000000000008152600401620008fd9062000fd2565b60405180910390fd5b620009798160405180606001604052806026815260200162004f87602691396000808773ffffffffffffffffffffffffffffffffffffffff1673ffffffffffffffffffffffffffffffffffffffff1681526020019081526020016000205462000ac160201b620029d2179092919060201c565b6000808573ffffffffffffffffffffffffffffffffffffffff1673ffffffffffffffffffffffffffffffffffffffff1681526020019081526020016000208190555062000a13816000808573ffffffffffffffffffffffffffffffffffffffff1673ffffffffffffffffffffffffffffffffffffffff168152602001908152602001600020546200062e60201b62002aff1790919060201c565b6000808473ffffffffffffffffffffffffffffffffffffffff1673ffffffffffffffffffffffffffffffffffffffff168152602001908152602001600020819055508173ffffffffffffffffffffffffffffffffffffffff168373ffffffffffffffffffffffffffffffffffffffff167fddf252ad1be2c89b69c2b068fc378daa952ba7f163c4a11628f55a4df523b3ef8360405162000ab491906200107c565b60405180910390a3505050565b600083831115829062000b0c576040517f08c379a000000000000000000000000000000000000000000000000000000000815260040162000b03919062000fae565b60405180910390fd5b5060008385039050809150509392505050565b828054600181600116156101000203166002900490600052602060002090601f016020900481019282601f1062000b6257805160ff191683800117855562000b93565b8280016001018555821562000b93579182015b8281111562000b9257825182559160200191906001019062000b75565b5b50905062000ba2919062000ba6565b5090565b62000bcb91905b8082111562000bc757600081600090555060010162000bad565b5090565b90565b60008151905062000bdf81620011be565b92915050565b600082601f83011262000bf757600080fd5b815162000c0e62000c0882620010c7565b62001099565b9150818183526020840193506020810190508385602084028201111562000c3457600080fd5b60005b8381101562000c68578162000c4d888262000bce565b84526020840193506020830192505060018101905062000c37565b5050505092915050565b600082601f83011262000c8457600080fd5b815162000c9b62000c9582620010f0565b62001099565b9150808252602083016020830185838301111562000cb857600080fd5b62000cc583828462001177565b50505092915050565b60008151905062000cdf81620011d8565b92915050565b60008060008060008060c0878903121562000cff57600080fd5b600087015167ffffffffffffffff81111562000d1a57600080fd5b62000d2889828a0162000c72565b965050602087015167ffffffffffffffff81111562000d4657600080fd5b62000d5489828a0162000c72565b955050604062000d6789828a0162000cce565b945050606087015167ffffffffffffffff81111562000d8557600080fd5b62000d9389828a0162000be5565b935050608062000da689828a0162000cce565b92505060a062000db989828a0162000cce565b9150509295509295509295565b600062000dd3826200111d565b62000ddf818562001128565b935062000df181856020860162001177565b62000dfc81620011ad565b840191505092915050565b600062000e1660238362001128565b91507f45524332303a207472616e7366657220746f20746865207a65726f206164647260008301527f65737300000000000000000000000000000000000000000000000000000000006020830152604082019050919050565b600062000e7e600e8362001128565b91507f537570706c79206973206f7665720000000000000000000000000000000000006000830152602082019050919050565b600062000ec0601b8362001128565b91507f536166654d6174683a206164646974696f6e206f766572666c6f7700000000006000830152602082019050919050565b600062000f0260258362001128565b91507f45524332303a207472616e736665722066726f6d20746865207a65726f20616460008301527f64726573730000000000000000000000000000000000000000000000000000006020830152604082019050919050565b600062000f6a601f8362001128565b91507f45524332303a206d696e7420746f20746865207a65726f2061646472657373006000830152602082019050919050565b62000fa8816200116d565b82525050565b6000602082019050818103600083015262000fca818462000dc6565b905092915050565b6000602082019050818103600083015262000fed8162000e07565b9050919050565b600060208201905081810360008301526200100f8162000e6f565b9050919050565b60006020820190508181036000830152620010318162000eb1565b9050919050565b60006020820190508181036000830152620010538162000ef3565b9050919050565b60006020820190508181036000830152620010758162000f5b565b9050919050565b600060208201905062001093600083018462000f9d565b92915050565b6000604051905081810181811067ffffffffffffffff82111715620010bd57600080fd5b8060405250919050565b600067ffffffffffffffff821115620010df57600080fd5b602082029050602081019050919050565b600067ffffffffffffffff8211156200110857600080fd5b601f19601f8301169050602081019050919050565b600081519050919050565b600082825260208201905092915050565b600062001146826200114d565b9050919050565b600073ffffffffffffffffffffffffffffffffffffffff82169050919050565b6000819050919050565b60005b83811015620011975780820151818401526020810190506200117a565b83811115620011a7576000848401525b50505050565b6000601f19601f8301169050919050565b620011c98162001139565b8114620011d557600080fd5b50565b620011e3816200116d565b8114620011ef57600080fd5b50565b613d8580620012026000396000f3fe608060405234801561001057600080fd5b50600436106102535760003560e01c80636dd7d8ea11610146578063a9059cbb116100c3578063dd0e237311610087578063dd0e2373146106e6578063dd62ed3e14610716578063f1df6a8414610746578063f2fde38b14610764578063fddfb93e14610780578063ff31fd0c1461079c57610253565b8063a9059cbb1461061c578063af8c50b61461064c578063b27a76a31461066a578063d55d73c514610686578063d8d97988146106b657610253565b80638f32d59b1161010a5780638f32d59b1461058a57806395d89b41146105a85780639ab1b484146105c6578063a457c2d7146105d0578063a7990a7a1461060057610253565b80636dd7d8ea146104f857806370a0823114610514578063715018a61461054457806385e8e7a71461054e5780638da5cb5b1461056c57610253565b806330e7a79c116101d45780634717f97c116101985780634717f97c1461045d57806349a2b6031461047b57806350a4ca1b146104995780635fbbe65a146104b85780636652e526146104d857610253565b806330e7a79c146103a0578063313ce567146103be5780633477ee2e146103dc57806339509351146104115780633d72de431461044157610253565b8063227292f01161021b578063227292f0146102fc57806323b872dd1461031a5780632742ab291461034a5780632d35a8a2146103665780632fdc2cc61461038457610253565b8063031a13741461025857806306fdde0314610274578063095ea7b3146102925780630df7afab146102c257806318160ddd146102de575b600080fd5b610272600480360361026d9190810190613050565b6107b8565b005b61027c6107e3565b60405161028991906137c4565b60405180910390f35b6102ac60048036036102a79190810190612fd3565b610885565b6040516102b99190613787565b60405180910390f35b6102dc60048036036102d79190810190612f28565b61089c565b005b6102e6610b80565b6040516102f391906139eb565b60405180910390f35b610304610b8a565b60405161031191906139eb565b60405180910390f35b610334600480360361032f9190810190612ed9565b610b94565b6040516103419190613787565b60405180910390f35b610364600480360361035f919081019061300f565b610c5f565b005b61036e610d11565b60405161037b91906139eb565b60405180910390f35b61039e60048036036103999190810190613091565b610d17565b005b6103a8610d7a565b6040516103b591906137c4565b60405180910390f35b6103c6610e1c565b6040516103d39190613ab3565b60405180910390f35b6103f660048036036103f19190810190613091565b610e33565b60405161040896959493929190613a06565b60405180910390f35b61042b60048036036104269190810190612fd3565b611064565b6040516104389190613787565b60405180910390f35b61045b60048036036104569190810190613050565b611109565b005b610465611134565b6040516104729190613765565b60405180910390f35b61048361121f565b60405161049091906137a2565b60405180910390f35b6104a16112bd565b6040516104af92919061372e565b60405180910390f35b6104c0611520565b6040516104cf93929190613a7c565b60405180910390f35b6104e061153c565b6040516104ef939291906137e6565b60405180910390f35b610512600480360361050d9190810190612e74565b61168b565b005b61052e60048036036105299190810190612e74565b61196c565b60405161053b91906139eb565b60405180910390f35b61054c6119b4565b005b610556611a86565b60405161056391906137a2565b60405180910390f35b610574611b24565b6040516105819190613713565b60405180910390f35b610592611b4e565b60405161059f9190613787565b60405180910390f35b6105b0611ba6565b6040516105bd91906137c4565b60405180910390f35b6105ce611c48565b005b6105ea60048036036105e59190810190612fd3565b611d0a565b6040516105f79190613787565b60405180910390f35b61061a60048036036106159190810190612f28565b611dc9565b005b61063660048036036106319190810190612fd3565b612063565b6040516106439190613787565b60405180910390f35b61065461207a565b60405161066191906137c4565b60405180910390f35b610684600480360361067f9190810190613091565b61211c565b005b6106a0600480360361069b9190810190613091565b61217f565b6040516106ad9190613713565b60405180910390f35b6106d060048036036106cb9190810190612e74565b6121bb565b6040516106dd9190613787565b60405180910390f35b61070060048036036106fb9190810190613091565b6123ad565b60405161070d9190613713565b60405180910390f35b610730600480360361072b9190810190612e9d565b6123e9565b60405161073d91906139eb565b60405180910390f35b61074e612470565b60405161075b9190613765565b60405180910390f35b61077e60048036036107799190810190612e74565b61252a565b005b61079a60048036036107959190810190613091565b612547565b005b6107b660048036036107b19190810190613091565b612562565b005b6107c0611b4e565b6107c957600080fd5b80600890805190602001906107df929190612c4e565b5050565b606060038054600181600116156101000203166002900480601f01602080910402602001604051908101604052809291908181526020018280546001816001161561010002031660029004801561087b5780601f106108505761010080835404028352916020019161087b565b820191906000526020600020905b81548152906001019060200180831161085e57829003601f168201915b5050505050905090565b600061089233848461257d565b6001905092915050565b6108a4611b4e565b6108ad57600080fd5b6001601054024211156108f5576040517f08c379a00000000000000000000000000000000000000000000000000000000081526004016108ec9061388b565b60405180910390fd5b600d60008573ffffffffffffffffffffffffffffffffffffffff1673ffffffffffffffffffffffffffffffffffffffff16815260200190815260200160002060009054906101000a900460ff1615610982576040517f08c379a00000000000000000000000000000000000000000000000000000000081526004016109799061394b565b60405180910390fd5b6001600d60008673ffffffffffffffffffffffffffffffffffffffff1673ffffffffffffffffffffffffffffffffffffffff16815260200190815260200160002060006101000a81548160ff0219169083151502179055506040518060c0016040528060075481526020018481526020018381526020018573ffffffffffffffffffffffffffffffffffffffff16815260200182815260200160011515815250600660006007548152602001908152602001600020600082015181600001556020820151816001019080519060200190610a5d929190612cce565b506040820151816002019080519060200190610a7a929190612cce565b5060608201518160030160006101000a81548173ffffffffffffffffffffffffffffffffffffffff021916908373ffffffffffffffffffffffffffffffffffffffff1602179055506080820151816004019080519060200190610ade929190612cce565b5060a08201518160050160006101000a81548160ff021916908315150217905550905050600760008154809291906001019190505550600b8490806001815401808255809150509060018203906000526020600020016000909192909190916101000a81548173ffffffffffffffffffffffffffffffffffffffff021916908373ffffffffffffffffffffffffffffffffffffffff1602179055505050505050565b6000600254905090565b6000600f54905090565b6000610ba1848484612748565b610c548433610c4f85604051806060016040528060288152602001613cf660289139600160008b73ffffffffffffffffffffffffffffffffffffffff1673ffffffffffffffffffffffffffffffffffffffff16815260200190815260200160002060003373ffffffffffffffffffffffffffffffffffffffff1673ffffffffffffffffffffffffffffffffffffffff168152602001908152602001600020546129d29092919063ffffffff16565b61257d565b600190509392505050565b610c67611b4e565b610c7057600080fd5b60008090505b8151811015610d0d57600c6000838381518110610c8f57fe5b602002602001015173ffffffffffffffffffffffffffffffffffffffff1673ffffffffffffffffffffffffffffffffffffffff16815260200190815260200160002060009054906101000a900460ff16610d0057610cff828281518110610cf257fe5b6020026020010151612a2d565b5b8080600101915050610c76565b5050565b60075481565b610d1f611b4e565b610d2857600080fd5b600160105402421115610d70576040517f08c379a0000000000000000000000000000000000000000000000000000000008152600401610d679061388b565b60405180910390fd5b8060108190555050565b606060088054600181600116156101000203166002900480601f016020809104026020016040519081016040528092919081815260200182805460018160011615610100020316600290048015610e125780601f10610de757610100808354040283529160200191610e12565b820191906000526020600020905b815481529060010190602001808311610df557829003601f168201915b5050505050905090565b6000600560009054906101000a900460ff16905090565b6006602052806000526040600020600091509050806000015490806001018054600181600116156101000203166002900480601f016020809104026020016040519081016040528092919081815260200182805460018160011615610100020316600290048015610ee55780601f10610eba57610100808354040283529160200191610ee5565b820191906000526020600020905b815481529060010190602001808311610ec857829003601f168201915b505050505090806002018054600181600116156101000203166002900480601f016020809104026020016040519081016040528092919081815260200182805460018160011615610100020316600290048015610f835780601f10610f5857610100808354040283529160200191610f83565b820191906000526020600020905b815481529060010190602001808311610f6657829003601f168201915b5050505050908060030160009054906101000a900473ffffffffffffffffffffffffffffffffffffffff1690806004018054600181600116156101000203166002900480601f0160208091040260200160405190810160405280929190818152602001828054600181600116156101000203166002900480156110475780601f1061101c57610100808354040283529160200191611047565b820191906000526020600020905b81548152906001019060200180831161102a57829003601f168201915b5050505050908060050160009054906101000a900460ff16905086565b60006110ff33846110fa85600160003373ffffffffffffffffffffffffffffffffffffffff1673ffffffffffffffffffffffffffffffffffffffff16815260200190815260200160002060008973ffffffffffffffffffffffffffffffffffffffff1673ffffffffffffffffffffffffffffffffffffffff16815260200190815260200160002054612aff90919063ffffffff16565b61257d565b6001905092915050565b611111611b4e565b61111a57600080fd5b8060099080519060200190611130929190612c4e565b5050565b606080600b8054905060405190808252806020026020018201604052801561116b5781602001602082028038833980820191505090505b50905060008090505b600b8054905081101561121757600115156006600083815260200190815260200160002060050160009054906101000a900460ff161515141561120a576111f1600b82815481106111c157fe5b9060005260206000200160009054906101000a900473ffffffffffffffffffffffffffffffffffffffff1661196c565b8282815181106111fd57fe5b6020026020010181815250505b8080600101915050611174565b508091505090565b60098054600181600116156101000203166002900480601f0160208091040260200160405190810160405280929190818152602001828054600181600116156101000203166002900480156112b55780601f1061128a576101008083540402835291602001916112b5565b820191906000526020600020905b81548152906001019060200180831161129857829003601f168201915b505050505081565b60608060606007546040519080825280602002602001820160405280156112f857816020015b60608152602001906001900390816112e35790505b509050606060075460405190808252806020026020018201604052801561133357816020015b606081526020019060019003908161131e5790505b50905060008090505b600b8054905081101561151357600115156006600083815260200190815260200160002060050160009054906101000a900460ff161515141561144057600660008281526020019081526020016000206001018054600181600116156101000203166002900480601f0160208091040260200160405190810160405280929190818152602001828054600181600116156101000203166002900480156114235780601f106113f857610100808354040283529160200191611423565b820191906000526020600020905b81548152906001019060200180831161140657829003601f168201915b505050505083828151811061143457fe5b60200260200101819052505b600660008281526020019081526020016000206002018054600181600116156101000203166002900480601f0160208091040260200160405190810160405280929190818152602001828054600181600116156101000203166002900480156114ea5780601f106114bf576101008083540402835291602001916114ea565b820191906000526020600020905b8154815290600101906020018083116114cd57829003601f168201915b50505050508282815181106114fb57fe5b6020026020010181905250808060010191505061133c565b5081819350935050509091565b60008060008042905080601054600f5493509350935050909192565b606080600060086009600754828054600181600116156101000203166002900480601f0160208091040260200160405190810160405280929190818152602001828054600181600116156101000203166002900480156115dd5780601f106115b2576101008083540402835291602001916115dd565b820191906000526020600020905b8154815290600101906020018083116115c057829003601f168201915b50505050509250818054600181600116156101000203166002900480601f0160208091040260200160405190810160405280929190818152602001828054600181600116156101000203166002900480156116795780601f1061164e57610100808354040283529160200191611679565b820191906000526020600020905b81548152906001019060200180831161165c57829003601f168201915b50505050509150925092509250909192565b6001600f540242106116d2576040517f08c379a00000000000000000000000000000000000000000000000000000000081526004016116c99061392b565b60405180910390fd5b600d60008273ffffffffffffffffffffffffffffffffffffffff1673ffffffffffffffffffffffffffffffffffffffff16815260200190815260200160002060009054906101000a900460ff1661175e576040517f08c379a00000000000000000000000000000000000000000000000000000000081526004016117559061390b565b60405180910390fd5b600c60003373ffffffffffffffffffffffffffffffffffffffff1673ffffffffffffffffffffffffffffffffffffffff16815260200190815260200160002060009054906101000a900460ff166117ea576040517f08c379a00000000000000000000000000000000000000000000000000000000081526004016117e1906139cb565b60405180910390fd5b600e60003373ffffffffffffffffffffffffffffffffffffffff1673ffffffffffffffffffffffffffffffffffffffff16815260200190815260200160002060009054906101000a900460ff1615611877576040517f08c379a000000000000000000000000000000000000000000000000000000000815260040161186e906138cb565b60405180910390fd5b60006118823361196c565b116118c2576040517f08c379a00000000000000000000000000000000000000000000000000000000081526004016118b99061396b565b60405180910390fd5b6118cd816001612063565b506001600e60003373ffffffffffffffffffffffffffffffffffffffff1673ffffffffffffffffffffffffffffffffffffffff16815260200190815260200160002060006101000a81548160ff0219169083151502179055508073ffffffffffffffffffffffffffffffffffffffff167f06640b67015c37470a2bc2e00a76d594f6794fae0d12b9e206bc1bf369fe067660405160405180910390a250565b60008060008373ffffffffffffffffffffffffffffffffffffffff1673ffffffffffffffffffffffffffffffffffffffff168152602001908152602001600020549050919050565b6119bc611b4e565b6119c557600080fd5b600073ffffffffffffffffffffffffffffffffffffffff16600560019054906101000a900473ffffffffffffffffffffffffffffffffffffffff1673ffffffffffffffffffffffffffffffffffffffff167f8be0079c531659141344cd1fd0a4f28419497f9722a3daafe3b4186f6b6457e060405160405180910390a36000600560016101000a81548173ffffffffffffffffffffffffffffffffffffffff021916908373ffffffffffffffffffffffffffffffffffffffff160217905550565b60088054600181600116156101000203166002900480601f016020809104026020016040519081016040528092919081815260200182805460018160011615610100020316600290048015611b1c5780601f10611af157610100808354040283529160200191611b1c565b820191906000526020600020905b815481529060010190602001808311611aff57829003601f168201915b505050505081565b6000600560019054906101000a900473ffffffffffffffffffffffffffffffffffffffff16905090565b6000600560019054906101000a900473ffffffffffffffffffffffffffffffffffffffff1673ffffffffffffffffffffffffffffffffffffffff163373ffffffffffffffffffffffffffffffffffffffff1614905090565b606060048054600181600116156101000203166002900480601f016020809104026020016040519081016040528092919081815260200182805460018160011615610100020316600290048015611c3e5780601f10611c1357610100808354040283529160200191611c3e565b820191906000526020600020905b815481529060010190602001808311611c2157829003601f168201915b5050505050905090565b611c50611b4e565b611c5957600080fd5b60008090505b600a80549050811015611d07576000611c773361196c565b11611cb7576040517f08c379a0000000000000000000000000000000000000000000000000000000008152600401611cae9061386b565b60405180910390fd5b611cf9600a8281548110611cc757fe5b9060005260206000200160009054906101000a900473ffffffffffffffffffffffffffffffffffffffff166001612063565b508080600101915050611c5f565b50565b6000611dbf3384611dba85604051806060016040528060258152602001613d1e60259139600160003373ffffffffffffffffffffffffffffffffffffffff1673ffffffffffffffffffffffffffffffffffffffff16815260200190815260200160002060008a73ffffffffffffffffffffffffffffffffffffffff1673ffffffffffffffffffffffffffffffffffffffff168152602001908152602001600020546129d29092919063ffffffff16565b61257d565b6001905092915050565b611dd1611b4e565b611dda57600080fd5b600160105402421115611e22576040517f08c379a0000000000000000000000000000000000000000000000000000000008152600401611e199061388b565b60405180910390fd5b600d60008573ffffffffffffffffffffffffffffffffffffffff1673ffffffffffffffffffffffffffffffffffffffff16815260200190815260200160002060009054906101000a900460ff16611eae576040517f08c379a0000000000000000000000000000000000000000000000000000000008152600401611ea59061382b565b60405180910390fd5b60008090505b60075481101561205c578473ffffffffffffffffffffffffffffffffffffffff166006600083815260200190815260200160002060030160009054906101000a900473ffffffffffffffffffffffffffffffffffffffff1673ffffffffffffffffffffffffffffffffffffffff16141561204f576040518060c0016040528060075481526020018581526020018481526020018673ffffffffffffffffffffffffffffffffffffffff1681526020018381526020016001151581525060066000838152602001908152602001600020600082015181600001556020820151816001019080519060200190611fa9929190612cce565b506040820151816002019080519060200190611fc6929190612cce565b5060608201518160030160006101000a81548173ffffffffffffffffffffffffffffffffffffffff021916908373ffffffffffffffffffffffffffffffffffffffff160217905550608082015181600401908051906020019061202a929190612cce565b5060a08201518160050160006101000a81548160ff0219169083151502179055509050505b8080600101915050611eb4565b5050505050565b6000612070338484612748565b6001905092915050565b606060098054600181600116156101000203166002900480601f0160208091040260200160405190810160405280929190818152602001828054600181600116156101000203166002900480156121125780601f106120e757610100808354040283529160200191612112565b820191906000526020600020905b8154815290600101906020018083116120f557829003601f168201915b5050505050905090565b612124611b4e565b61212d57600080fd5b600160105402421115612175576040517f08c379a000000000000000000000000000000000000000000000000000000000815260040161216c9061388b565b60405180910390fd5b80600f8190555050565b600b818154811061218c57fe5b906000526020600020016000915054906101000a900473ffffffffffffffffffffffffffffffffffffffff1681565b60006121c5611b4e565b6121ce57600080fd5b600160105402421115612216576040517f08c379a000000000000000000000000000000000000000000000000000000000815260040161220d9061388b565b60405180910390fd5b600d60008373ffffffffffffffffffffffffffffffffffffffff1673ffffffffffffffffffffffffffffffffffffffff16815260200190815260200160002060009054906101000a900460ff166122a2576040517f08c379a00000000000000000000000000000000000000000000000000000000081526004016122999061382b565b60405180910390fd5b60008090505b6007548110156123a257600d60008473ffffffffffffffffffffffffffffffffffffffff1673ffffffffffffffffffffffffffffffffffffffff16815260200190815260200160002060009054906101000a900460ff16156123955760006006600083815260200190815260200160002060050160006101000a81548160ff0219169083151502179055506000600d60008573ffffffffffffffffffffffffffffffffffffffff1673ffffffffffffffffffffffffffffffffffffffff16815260200190815260200160002060006101000a81548160ff02191690831515021790555060019150506123a8565b80806001019150506122a8565b50600090505b919050565b600a81815481106123ba57fe5b906000526020600020016000915054906101000a900473ffffffffffffffffffffffffffffffffffffffff1681565b6000600160008473ffffffffffffffffffffffffffffffffffffffff1673ffffffffffffffffffffffffffffffffffffffff16815260200190815260200160002060008373ffffffffffffffffffffffffffffffffffffffff1673ffffffffffffffffffffffffffffffffffffffff16815260200190815260200160002054905092915050565b606080600b805490506040519080825280602002602001820160405280156124a75781602001602082028038833980820191505090505b50905060008090505b600b80549050811015612522576124fd600b82815481106124cd57fe5b9060005260206000200160009054906101000a900473ffffffffffffffffffffffffffffffffffffffff1661196c565b82828151811061250957fe5b60200260200101818152505080806001019150506124b0565b508091505090565b612532611b4e565b61253b57600080fd5b61254481612b54565b50565b61254f611b4e565b61255857600080fd5b80600f8190555050565b61256a611b4e565b61257357600080fd5b8060108190555050565b600073ffffffffffffffffffffffffffffffffffffffff168373ffffffffffffffffffffffffffffffffffffffff1614156125ed576040517f08c379a00000000000000000000000000000000000000000000000000000000081526004016125e4906139ab565b60405180910390fd5b600073ffffffffffffffffffffffffffffffffffffffff168273ffffffffffffffffffffffffffffffffffffffff16141561265d576040517f08c379a0000000000000000000000000000000000000000000000000000000008152600401612654906138ab565b60405180910390fd5b80600160008573ffffffffffffffffffffffffffffffffffffffff1673ffffffffffffffffffffffffffffffffffffffff16815260200190815260200160002060008473ffffffffffffffffffffffffffffffffffffffff1673ffffffffffffffffffffffffffffffffffffffff168152602001908152602001600020819055508173ffffffffffffffffffffffffffffffffffffffff168373ffffffffffffffffffffffffffffffffffffffff167f8c5be1e5ebec7d5bd14f71427d1e84f3dd0314c0f7b2291e5b200ac8c7c3b9258360405161273b91906139eb565b60405180910390a3505050565b600073ffffffffffffffffffffffffffffffffffffffff168373ffffffffffffffffffffffffffffffffffffffff1614156127b8576040517f08c379a00000000000000000000000000000000000000000000000000000000081526004016127af9061398b565b60405180910390fd5b600073ffffffffffffffffffffffffffffffffffffffff168273ffffffffffffffffffffffffffffffffffffffff161415612828576040517f08c379a000000000000000000000000000000000000000000000000000000000815260040161281f9061384b565b60405180910390fd5b61289381604051806060016040528060268152602001613cd0602691396000808773ffffffffffffffffffffffffffffffffffffffff1673ffffffffffffffffffffffffffffffffffffffff168152602001908152602001600020546129d29092919063ffffffff16565b6000808573ffffffffffffffffffffffffffffffffffffffff1673ffffffffffffffffffffffffffffffffffffffff16815260200190815260200160002081905550612926816000808573ffffffffffffffffffffffffffffffffffffffff1673ffffffffffffffffffffffffffffffffffffffff16815260200190815260200160002054612aff90919063ffffffff16565b6000808473ffffffffffffffffffffffffffffffffffffffff1673ffffffffffffffffffffffffffffffffffffffff168152602001908152602001600020819055508173ffffffffffffffffffffffffffffffffffffffff168373ffffffffffffffffffffffffffffffffffffffff167fddf252ad1be2c89b69c2b068fc378daa952ba7f163c4a11628f55a4df523b3ef836040516129c591906139eb565b60405180910390a3505050565b6000838311158290612a1a576040517f08c379a0000000000000000000000000000000000000000000000000000000008152600401612a1191906137c4565b60405180910390fd5b5060008385039050809150509392505050565b612a35611b4e565b612a3e57600080fd5b6001600c60008373ffffffffffffffffffffffffffffffffffffffff1673ffffffffffffffffffffffffffffffffffffffff16815260200190815260200160002060006101000a81548160ff021916908315150217905550600a8190806001815401808255809150509060018203906000526020600020016000909192909190916101000a81548173ffffffffffffffffffffffffffffffffffffffff021916908373ffffffffffffffffffffffffffffffffffffffff1602179055505050565b600080828401905083811015612b4a576040517f08c379a0000000000000000000000000000000000000000000000000000000008152600401612b41906138eb565b60405180910390fd5b8091505092915050565b600073ffffffffffffffffffffffffffffffffffffffff168173ffffffffffffffffffffffffffffffffffffffff161415612b8e57600080fd5b8073ffffffffffffffffffffffffffffffffffffffff16600560019054906101000a900473ffffffffffffffffffffffffffffffffffffffff1673ffffffffffffffffffffffffffffffffffffffff167f8be0079c531659141344cd1fd0a4f28419497f9722a3daafe3b4186f6b6457e060405160405180910390a380600560016101000a81548173ffffffffffffffffffffffffffffffffffffffff021916908373ffffffffffffffffffffffffffffffffffffffff16021790555050565b828054600181600116156101000203166002900490600052602060002090601f016020900481019282601f10612c8f57805160ff1916838001178555612cbd565b82800160010185558215612cbd579182015b82811115612cbc578251825591602001919060010190612ca1565b5b509050612cca9190612d4e565b5090565b828054600181600116156101000203166002900490600052602060002090601f016020900481019282601f10612d0f57805160ff1916838001178555612d3d565b82800160010185558215612d3d579182015b82811115612d3c578251825591602001919060010190612d21565b5b509050612d4a9190612d4e565b5090565b612d7091905b80821115612d6c576000816000905550600101612d54565b5090565b90565b600081359050612d8281613ca1565b92915050565b600082601f830112612d9957600080fd5b8135612dac612da782613afb565b613ace565b91508181835260208401935060208101905083856020840282011115612dd157600080fd5b60005b83811015612e015781612de78882612d73565b845260208401935060208301925050600181019050612dd4565b5050505092915050565b600082601f830112612e1c57600080fd5b8135612e2f612e2a82613b23565b613ace565b91508082526020830160208301858383011115612e4b57600080fd5b612e56838284613c4e565b50505092915050565b600081359050612e6e81613cb8565b92915050565b600060208284031215612e8657600080fd5b6000612e9484828501612d73565b91505092915050565b60008060408385031215612eb057600080fd5b6000612ebe85828601612d73565b9250506020612ecf85828601612d73565b9150509250929050565b600080600060608486031215612eee57600080fd5b6000612efc86828701612d73565b9350506020612f0d86828701612d73565b9250506040612f1e86828701612e5f565b9150509250925092565b60008060008060808587031215612f3e57600080fd5b6000612f4c87828801612d73565b945050602085013567ffffffffffffffff811115612f6957600080fd5b612f7587828801612e0b565b935050604085013567ffffffffffffffff811115612f9257600080fd5b612f9e87828801612e0b565b925050606085013567ffffffffffffffff811115612fbb57600080fd5b612fc787828801612e0b565b91505092959194509250565b60008060408385031215612fe657600080fd5b6000612ff485828601612d73565b925050602061300585828601612e5f565b9150509250929050565b60006020828403121561302157600080fd5b600082013567ffffffffffffffff81111561303b57600080fd5b61304784828501612d88565b91505092915050565b60006020828403121561306257600080fd5b600082013567ffffffffffffffff81111561307c57600080fd5b61308884828501612e0b565b91505092915050565b6000602082840312156130a357600080fd5b60006130b184828501612e5f565b91505092915050565b60006130c68383613210565b905092915050565b60006130da83836136e6565b60208301905092915050565b6130ef81613bf9565b82525050565b600061310082613b6f565b61310a8185613bb5565b93508360208202850161311c85613b4f565b8060005b85811015613158578484038952815161313985826130ba565b945061314483613b9b565b925060208a01995050600181019050613120565b50829750879550505050505092915050565b600061317582613b7a565b61317f8185613bc6565b935061318a83613b5f565b8060005b838110156131bb5781516131a288826130ce565b97506131ad83613ba8565b92505060018101905061318e565b5085935050505092915050565b6131d181613c0b565b82525050565b60006131e282613b90565b6131ec8185613be8565b93506131fc818560208601613c5d565b61320581613c90565b840191505092915050565b600061321b82613b85565b6132258185613bd7565b9350613235818560208601613c5d565b61323e81613c90565b840191505092915050565b600061325482613b85565b61325e8185613be8565b935061326e818560208601613c5d565b61327781613c90565b840191505092915050565b600061328f602483613be8565b91507f546869732063616e646964617465206164647265737320646f65736e2774206560008301527f78697374000000000000000000000000000000000000000000000000000000006020830152604082019050919050565b60006132f5602383613be8565b91507f45524332303a207472616e7366657220746f20746865207a65726f206164647260008301527f65737300000000000000000000000000000000000000000000000000000000006020830152604082019050919050565b600061335b600e83613be8565b91507f537570706c79206973206f7665720000000000000000000000000000000000006000830152602082019050919050565b600061339b601983613be8565b91507f5468697320706f6c6c20616c72656164792073746172746564000000000000006000830152602082019050919050565b60006133db602283613be8565b91507f45524332303a20617070726f766520746f20746865207a65726f20616464726560008301527f73730000000000000000000000000000000000000000000000000000000000006020830152604082019050919050565b6000613441601283613be8565b91507f5573657220616c726561647920766f74656400000000000000000000000000006000830152602082019050919050565b6000613481601b83613be8565b91507f536166654d6174683a206164646974696f6e206f766572666c6f7700000000006000830152602082019050919050565b60006134c1601283613be8565b91507f4973206e6f7420612043616e64696461746500000000000000000000000000006000830152602082019050919050565b6000613501601683613be8565b91507f5468697320706f6c6c2068617320657870697265642e000000000000000000006000830152602082019050919050565b6000613541602483613be8565b91507f546869732063616e646964617465206164647265737320616c7265616479206560008301527f78697374000000000000000000000000000000000000000000000000000000006020830152604082019050919050565b60006135a7601a83613be8565b91507f566f74657220646f65736e27742068617665206120746f6b656e0000000000006000830152602082019050919050565b60006135e7602583613be8565b91507f45524332303a207472616e736665722066726f6d20746865207a65726f20616460008301527f64726573730000000000000000000000000000000000000000000000000000006020830152604082019050919050565b600061364d602483613be8565b91507f45524332303a20617070726f76652066726f6d20746865207a65726f2061646460008301527f72657373000000000000000000000000000000000000000000000000000000006020830152604082019050919050565b60006136b3601b83613be8565b91507f557365722069736e277420617574686f72697a656420766f74657200000000006000830152602082019050919050565b6136ef81613c37565b82525050565b6136fe81613c37565b82525050565b61370d81613c41565b82525050565b600060208201905061372860008301846130e6565b92915050565b6000604082019050818103600083015261374881856130f5565b9050818103602083015261375c81846130f5565b90509392505050565b6000602082019050818103600083015261377f818461316a565b905092915050565b600060208201905061379c60008301846131c8565b92915050565b600060208201905081810360008301526137bc8184613249565b905092915050565b600060208201905081810360008301526137de81846131d7565b905092915050565b6000606082019050818103600083015261380081866131d7565b9050818103602083015261381481856131d7565b905061382360408301846136f5565b949350505050565b6000602082019050818103600083015261384481613282565b9050919050565b60006020820190508181036000830152613864816132e8565b9050919050565b600060208201905081810360008301526138848161334e565b9050919050565b600060208201905081810360008301526138a48161338e565b9050919050565b600060208201905081810360008301526138c4816133ce565b9050919050565b600060208201905081810360008301526138e481613434565b9050919050565b6000602082019050818103600083015261390481613474565b9050919050565b60006020820190508181036000830152613924816134b4565b9050919050565b60006020820190508181036000830152613944816134f4565b9050919050565b6000602082019050818103600083015261396481613534565b9050919050565b600060208201905081810360008301526139848161359a565b9050919050565b600060208201905081810360008301526139a4816135da565b9050919050565b600060208201905081810360008301526139c481613640565b9050919050565b600060208201905081810360008301526139e4816136a6565b9050919050565b6000602082019050613a0060008301846136f5565b92915050565b600060c082019050613a1b60008301896136f5565b8181036020830152613a2d8188613249565b90508181036040830152613a418187613249565b9050613a5060608301866130e6565b8181036080830152613a628185613249565b9050613a7160a08301846131c8565b979650505050505050565b6000606082019050613a9160008301866136f5565b613a9e60208301856136f5565b613aab60408301846136f5565b949350505050565b6000602082019050613ac86000830184613704565b92915050565b6000604051905081810181811067ffffffffffffffff82111715613af157600080fd5b8060405250919050565b600067ffffffffffffffff821115613b1257600080fd5b602082029050602081019050919050565b600067ffffffffffffffff821115613b3a57600080fd5b601f19601f8301169050602081019050919050565b6000819050602082019050919050565b6000819050602082019050919050565b600081519050919050565b600081519050919050565b600081519050919050565b600081519050919050565b6000602082019050919050565b6000602082019050919050565b600082825260208201905092915050565b600082825260208201905092915050565b600082825260208201905092915050565b600082825260208201905092915050565b6000613c0482613c17565b9050919050565b60008115159050919050565b600073ffffffffffffffffffffffffffffffffffffffff82169050919050565b6000819050919050565b600060ff82169050919050565b82818337600083830152505050565b60005b83811015613c7b578082015181840152602081019050613c60565b83811115613c8a576000848401525b50505050565b6000601f19601f8301169050919050565b613caa81613bf9565b8114613cb557600080fd5b50565b613cc181613c37565b8114613ccc57600080fd5b5056fe45524332303a207472616e7366657220616d6f756e7420657863656564732062616c616e636545524332303a207472616e7366657220616d6f756e74206578636565647320616c6c6f77616e636545524332303a2064656372656173656420616c6c6f77616e63652062656c6f77207a65726fa365627a7a7231582001e0c5fc5a34e4187f87187c798c28f55868e567c6258532913891fbbd8df8856c6578706572696d656e74616cf564736f6c634300050c004045524332303a207472616e7366657220616d6f756e7420657863656564732062616c616e6365",
  "source": "pragma solidity >=0.4.22 <0.6.0;\r\npragma experimental ABIEncoderV2;   \r\n\r\nimport  \"./erc20.sol\";\r\nimport  \"./erc20Detailed.sol\";\r\nimport  \"./Owned.sol\";\r\n\r\ncontract ElectionToken is erc20, erc20Detailed, Owned{\r\n\r\n    struct Candidate{\r\n        uint id;                        // the candidate associated number in this pool\r\n        string name;                    // candidate name\r\n        string description;             // short description of the candidate\r\n        address candidateAdd;\r\n        string image;                   // candidate image link\r\n        bool candidateInitialized;      // true if candidate exist\r\n    }\r\n\r\n    mapping (uint => Candidate) public candidates;\r\n    uint public candidatesCount;\r\n\r\n    string public electionName;\r\n    string public electionDescription;\r\n\r\n    address[] public voterAddresses;\r\n    address[] public candidateAddresses;\r\n\r\n    mapping (address => bool) voterAddressInitialized;\r\n    mapping (address => bool) candidateAddressInitialized;\r\n\r\n    mapping (address => bool) voted;\r\n\r\n    /*https://www.unixtimestamp.com/index.php*/\r\n    uint256 private expiration;    // contract expiration time *** 1577971200 =2/1/2020 13:20:00\r\n    uint256 private start;         // contract start time\r\n\r\n    event votedEvent (\r\n        address indexed _candidateId\r\n    );\r\n\r\n    //constructor(uint256 _initialSupply, address[] memory _voterAddresses, address[] memory _candidateAddresses, uint256 _start, uint256 _end) erc20Detailed(\"VotingToken\", \"VTC\", 0)public{    //_initialTokenSupply = number of voters\r\n    constructor(string memory _name, string memory _description, uint256 _initialSupply, address[] memory _voterAddresses, uint256 _start, uint256 _end) erc20Detailed(\"VotingToken\", \"VTC\", 0)public{    //_initialTokenSupply = number of voters\r\n        _mint(msg.sender, _initialSupply);\r\n        setElectionName(_name);\r\n        setElectionDescription(_description);\r\n        addVotersList(_voterAddresses);\r\n        distributeTokens();\r\n        setElectionStartTime(_start);\r\n        setElectionExpirationTime(_end);\r\n    }\r\n \r\n    function getElectionData() public view returns (string memory, string memory ,uint ){\r\n        return (electionName, electionDescription, candidatesCount);\r\n    }\r\n\r\n    function setElectionName(string memory _name)public onlyOwner{\r\n        electionName = _name;\r\n    }\r\n\r\n    function getElectionName()public view returns (string memory){\r\n        return electionName;\r\n    }\r\n\r\n    function setElectionDescription(string memory _description)public onlyOwner{\r\n        electionDescription = _description;\r\n    }\r\n\r\n    function getElectionDescription()public view returns (string memory){\r\n        return electionDescription;\r\n    }\r\n\r\n    function addVoterAddress(address _address) internal onlyOwner{\r\n        voterAddressInitialized[_address] = true;\r\n        voterAddresses.push(_address);\r\n    }\r\n\r\n    function addVotersList(address[] memory addresses) public onlyOwner{\r\n        //require(now < (start * 1 seconds), \"Poll started v\");\r\n        for(uint i = 0; i < addresses.length; i++){\r\n            if(!voterAddressInitialized[addresses[i]]){\r\n                addVoterAddress(addresses[i]);\r\n            }\r\n        }\r\n    }\r\n\r\n    function addCandidate(address _address, string memory _name, string memory _description, string memory _image) public onlyOwner{\r\n        require(now <= (start * 1 seconds),\"This poll already started\");\r\n        require(!candidateAddressInitialized[_address], \"This candidate address already exist\");\r\n\r\n        candidateAddressInitialized[_address] = true;\r\n        candidates[candidatesCount] = Candidate(candidatesCount, _name, _description, _address, _image, true);\r\n        candidatesCount++;\r\n        candidateAddresses.push(_address);\r\n    }\r\n\r\n    function editCandidateByAddress(address _address, string memory _name, string memory _description, string memory _image) public onlyOwner{\r\n        require(now <= (start * 1 seconds),\"This poll already started\");\r\n        require(candidateAddressInitialized[_address], \"This candidate address doesn't exist\");\r\n\r\n        for(uint i = 0; i < candidatesCount; i++){      // find candidate index\r\n            if(candidates[i].candidateAdd == _address){\r\n                candidates[i] = Candidate(candidatesCount, _name, _description, _address, _image, true);\r\n            }\r\n        }\r\n    }\r\n\r\n    function deleteCandidateByAddress(address _address) public onlyOwner returns(bool){\r\n        require(now <= (start * 1 seconds),\"This poll already started\");\r\n        require(candidateAddressInitialized[_address], \"This candidate address doesn't exist\");\r\n\r\n        for(uint i = 0; i < candidatesCount; i++){      // find candidate index\r\n            if(candidateAddressInitialized[_address]){\r\n                candidates[i].candidateInitialized = false;\r\n                candidateAddressInitialized[_address] = false;\r\n                return true;\r\n            }\r\n        }\r\n        return false;\r\n    }\r\n\r\n    function distributeTokens() public onlyOwner{\r\n        for(uint i = 0; i < voterAddresses.length; i++){\r\n            //require(totalSupply() > 0,\"Supply is over\");\r\n            require(balanceOf(msg.sender) > 0,\"Supply is over\");\r\n            transfer(voterAddresses[i],1);\r\n        }\r\n    }\r\n\r\n    function vote(address candidateAddress) public {\r\n      \r\n        require(now < (expiration * 1 seconds), \"This poll has expired.\");\r\n        require(candidateAddressInitialized[candidateAddress],\"Is not a Candidate\");\r\n        require(voterAddressInitialized[msg.sender],\"User isn't authorized voter\");\r\n        require(!voted[msg.sender],\"User already voted\");\r\n        require(balanceOf(msg.sender) > 0,\"Voter doesn't have a token\");\r\n        transfer(candidateAddress,1);\r\n        voted[msg.sender] = true;\r\n\r\n        emit votedEvent(candidateAddress);\r\n    }\r\n\r\n\r\n\r\n    function getResults() public view returns (uint256[] memory ){\r\n        uint256[] memory results = new uint256[](candidateAddresses.length);\r\n        for(uint i = 0; i < candidateAddresses.length; i++){\r\n            if(candidates[i].candidateInitialized == true)\r\n                results[i] = balanceOf(candidateAddresses[i]);\r\n        }\r\n        return results;\r\n    }\r\n\r\n    function getCandidateData() public view returns (string[] memory, string[] memory ){\r\n        string[] memory candidateName = new string[](candidatesCount);\r\n        string[] memory candidateDescription = new string[](candidatesCount);\r\n        for(uint i = 0; i < candidateAddresses.length; i++){\r\n            if(candidates[i].candidateInitialized == true)\r\n                candidateName[i] = candidates[i].name;\r\n                candidateDescription[i] = candidates[i].description;\r\n        }\r\n        return (candidateName,candidateDescription);\r\n    }\r\n\r\n    function endElection() private {        // if voter didnt vote set him as if he did\r\n        for(uint i = 0; i < voterAddresses.length; i++){\r\n            if(!voted[voterAddresses[i]]){\r\n                voted[voterAddresses[i]] = true;\r\n            }\r\n        }\r\n    }\r\n\r\n    function setElectionStartTime(uint _start) public onlyOwner{\r\n        start = _start;\r\n    }\r\n\r\n    function setElectionExpirationTime(uint _expiration) public onlyOwner{\r\n        expiration = _expiration;\r\n    }\r\n\r\n    function changeElectionStartTime(uint _start) public onlyOwner{\r\n        require(now <= (start * 1 seconds), \"This poll already started\");\r\n        start = _start;\r\n    }\r\n\r\n    function changeElectionExpirationTime(uint _expiration) public onlyOwner{\r\n        require(now <= (start * 1 seconds), \"This poll already started\");\r\n        expiration = _expiration;\r\n    }\r\n\r\n    function displayTime() public view returns(uint256, uint256, uint256){\r\n        uint256 timeNow = now;\r\n        return (timeNow, start, expiration);\r\n    }\r\n     function displayEndTime() public view returns(uint256){\r\n        return (expiration);\r\n    }\r\n\r\n    function balanceOFFFF()public view returns (uint256[] memory){\r\n        uint256[] memory votebalance = new uint256[](candidateAddresses.length);\r\n        for(uint i = 0; i < candidateAddresses.length; i++){\r\n            votebalance[i] = balanceOf(candidateAddresses[i]);\r\n        }\r\n        return votebalance;\r\n    }\r\n}",
  "sourcePath": "C:/Users/Misha/Downloads/Votechain/contracts/ElectionToken.sol",
  "compiler": {
    "name": "solc",
    "version": "0.5.12+commit.7709ece9.Emscripten.clang"
  },
  "schemaVersion": "3.0.19",
  "updatedAt": "2020-01-24T12:55:21.589Z",
  "devdoc": {
    "methods": {
      "allowance(address,address)": {
        "details": "See {IERC20-allowance}."
      },
      "approve(address,uint256)": {
        "details": "See {IERC20-approve}.      * Requirements:      * - `spender` cannot be the zero address."
      },
      "balanceOf(address)": {
        "details": "See {IERC20-balanceOf}."
      },
      "decimals()": {
        "details": "Returns the number of decimals used to get its user representation. For example, if `decimals` equals `2`, a balance of `505` tokens should be displayed to a user as `5,05` (`505 / 10 ** 2`).      * Tokens usually opt for a value of 18, imitating the relationship between Ether and Wei.      * NOTE: This information is only used for _display_ purposes: it in no way affects any of the arithmetic of the contract, including {IERC20-balanceOf} and {IERC20-transfer}."
      },
      "decreaseAllowance(address,uint256)": {
        "details": "Atomically decreases the allowance granted to `spender` by the caller.      * This is an alternative to {approve} that can be used as a mitigation for problems described in {IERC20-approve}.      * Emits an {Approval} event indicating the updated allowance.      * Requirements:      * - `spender` cannot be the zero address. - `spender` must have allowance for the caller of at least `subtractedValue`."
      },
      "increaseAllowance(address,uint256)": {
        "details": "Atomically increases the allowance granted to `spender` by the caller.      * This is an alternative to {approve} that can be used as a mitigation for problems described in {IERC20-approve}.      * Emits an {Approval} event indicating the updated allowance.      * Requirements:      * - `spender` cannot be the zero address."
      },
      "isOwner()": {
        "return": "true if `msg.sender` is the owner of the contract."
      },
      "name()": {
        "details": "Returns the name of the token."
      },
      "owner()": {
        "return": "the address of the owner."
      },
      "renounceOwnership()": {
        "details": "Allows the current owner to relinquish control of the contract."
      },
      "symbol()": {
        "details": "Returns the symbol of the token, usually a shorter version of the name."
      },
      "totalSupply()": {
        "details": "See {IERC20-totalSupply}."
      },
      "transfer(address,uint256)": {
        "details": "See {IERC20-transfer}.      * Requirements:      * - `recipient` cannot be the zero address. - the caller must have a balance of at least `amount`."
      },
      "transferFrom(address,address,uint256)": {
        "details": "See {IERC20-transferFrom}.      * Emits an {Approval} event indicating the updated allowance. This is not required by the EIP. See the note at the beginning of {ERC20};      * Requirements: - `sender` and `recipient` cannot be the zero address. - `sender` must have a balance of at least `amount`. - the caller must have allowance for `sender`'s tokens of at least `amount`."
      },
      "transferOwnership(address)": {
        "details": "Allows the current owner to transfer control of the contract to a newOwner.",
        "params": {
          "newOwner": "The address to transfer ownership to."
        }
      }
    }
  },
  "userdoc": {
    "methods": {
      "renounceOwnership()": {
        "notice": "Renouncing to ownership will leave the contract without an owner. It will not be possible to call the functions with the `onlyOwner` modifier anymore."
      }
    }
  }
}